{
	"solidity-skills/simplepaymentchannel.sol": {
		"SimplePaymentChannel": {
			"abi": [
				{
					"inputs": [
						{
							"internalType": "address payable",
							"name": "recipientAddress",
							"type": "address"
						},
						{
							"internalType": "uint256",
							"name": "duration",
							"type": "uint256"
						}
					],
					"stateMutability": "payable",
					"type": "constructor"
				},
				{
					"inputs": [
						{
							"internalType": "uint256",
							"name": "amount",
							"type": "uint256"
						},
						{
							"internalType": "bytes",
							"name": "signature",
							"type": "bytes"
						}
					],
					"name": "close",
					"outputs": [],
					"stateMutability": "nonpayable",
					"type": "function"
				},
				{
					"inputs": [],
					"name": "expiration",
					"outputs": [
						{
							"internalType": "uint256",
							"name": "",
							"type": "uint256"
						}
					],
					"stateMutability": "view",
					"type": "function"
				},
				{
					"inputs": [
						{
							"internalType": "uint256",
							"name": "newExpiration",
							"type": "uint256"
						}
					],
					"name": "extend",
					"outputs": [],
					"stateMutability": "nonpayable",
					"type": "function"
				},
				{
					"inputs": [],
					"name": "recipient",
					"outputs": [
						{
							"internalType": "address payable",
							"name": "",
							"type": "address"
						}
					],
					"stateMutability": "view",
					"type": "function"
				},
				{
					"inputs": [],
					"name": "sender",
					"outputs": [
						{
							"internalType": "address payable",
							"name": "",
							"type": "address"
						}
					],
					"stateMutability": "view",
					"type": "function"
				}
			],
			"devdoc": {
				"kind": "dev",
				"methods": {},
				"version": 1
			},
			"evm": {
				"assembly": "    /* \"solidity-skills/simplepaymentchannel.sol\":70:1785  contract SimplePaymentChannel {... */\n  mstore(0x40, 0x80)\n    /* \"solidity-skills/simplepaymentchannel.sol\":212:420  constructor(address payable recipientAddress,uint256 duration) payable ... */\n  mload(0x40)\n  sub(codesize, bytecodeSize)\n  dup1\n  bytecodeSize\n  dup4\n  codecopy\n  dup2\n  dup2\n  add\n  0x40\n  mstore\n  dup2\n  add\n  swap1\n  tag_1\n  swap2\n  swap1\n  tag_2\n  jump\t// in\ntag_1:\n    /* \"solidity-skills/simplepaymentchannel.sol\":315:325  msg.sender */\n  caller\n    /* \"solidity-skills/simplepaymentchannel.sol\":298:304  sender */\n  0x00\n  dup1\n    /* \"solidity-skills/simplepaymentchannel.sol\":298:326  sender = payable(msg.sender) */\n  0x0100\n  exp\n  dup2\n  sload\n  dup2\n  0xffffffffffffffffffffffffffffffffffffffff\n  mul\n  not\n  and\n  swap1\n  dup4\n  0xffffffffffffffffffffffffffffffffffffffff\n  and\n  mul\n  or\n  swap1\n  sstore\n  pop\n    /* \"solidity-skills/simplepaymentchannel.sol\":348:364  recipientAddress */\n  dup2\n    /* \"solidity-skills/simplepaymentchannel.sol\":336:345  recipient */\n  0x01\n  0x00\n    /* \"solidity-skills/simplepaymentchannel.sol\":336:364  recipient = recipientAddress */\n  0x0100\n  exp\n  dup2\n  sload\n  dup2\n  0xffffffffffffffffffffffffffffffffffffffff\n  mul\n  not\n  and\n  swap1\n  dup4\n  0xffffffffffffffffffffffffffffffffffffffff\n  and\n  mul\n  or\n  swap1\n  sstore\n  pop\n    /* \"solidity-skills/simplepaymentchannel.sol\":405:413  duration */\n  dup1\n    /* \"solidity-skills/simplepaymentchannel.sol\":387:402  block.timestamp */\n  timestamp\n    /* \"solidity-skills/simplepaymentchannel.sol\":387:413  block.timestamp + duration */\n  tag_5\n  swap2\n  swap1\n  tag_6\n  jump\t// in\ntag_5:\n    /* \"solidity-skills/simplepaymentchannel.sol\":374:384  expiration */\n  0x02\n    /* \"solidity-skills/simplepaymentchannel.sol\":374:413  expiration = block.timestamp + duration */\n  dup2\n  swap1\n  sstore\n  pop\n    /* \"solidity-skills/simplepaymentchannel.sol\":212:420  constructor(address payable recipientAddress,uint256 duration) payable ... */\n  pop\n  pop\n    /* \"solidity-skills/simplepaymentchannel.sol\":70:1785  contract SimplePaymentChannel {... */\n  jump(tag_7)\n    /* \"#utility.yul\":7:166   */\ntag_9:\n    /* \"#utility.yul\":72:77   */\n  0x00\n    /* \"#utility.yul\":103:109   */\n  dup2\n    /* \"#utility.yul\":97:110   */\n  mload\n    /* \"#utility.yul\":88:110   */\n  swap1\n  pop\n    /* \"#utility.yul\":119:160   */\n  tag_11\n    /* \"#utility.yul\":154:159   */\n  dup2\n    /* \"#utility.yul\":119:160   */\n  tag_12\n  jump\t// in\ntag_11:\n    /* \"#utility.yul\":78:166   */\n  swap3\n  swap2\n  pop\n  pop\n  jump\t// out\n    /* \"#utility.yul\":172:315   */\ntag_13:\n    /* \"#utility.yul\":229:234   */\n  0x00\n    /* \"#utility.yul\":260:266   */\n  dup2\n    /* \"#utility.yul\":254:267   */\n  mload\n    /* \"#utility.yul\":245:267   */\n  swap1\n  pop\n    /* \"#utility.yul\":276:309   */\n  tag_15\n    /* \"#utility.yul\":303:308   */\n  dup2\n    /* \"#utility.yul\":276:309   */\n  tag_16\n  jump\t// in\ntag_15:\n    /* \"#utility.yul\":235:315   */\n  swap3\n  swap2\n  pop\n  pop\n  jump\t// out\n    /* \"#utility.yul\":321:777   */\ntag_2:\n    /* \"#utility.yul\":408:414   */\n  0x00\n    /* \"#utility.yul\":416:422   */\n  dup1\n    /* \"#utility.yul\":465:467   */\n  0x40\n    /* \"#utility.yul\":453:462   */\n  dup4\n    /* \"#utility.yul\":444:451   */\n  dup6\n    /* \"#utility.yul\":440:463   */\n  sub\n    /* \"#utility.yul\":436:468   */\n  slt\n    /* \"#utility.yul\":433:435   */\n  iszero\n  tag_18\n  jumpi\n    /* \"#utility.yul\":481:482   */\n  0x00\n    /* \"#utility.yul\":478:479   */\n  dup1\n    /* \"#utility.yul\":471:483   */\n  revert\n    /* \"#utility.yul\":433:435   */\ntag_18:\n    /* \"#utility.yul\":524:525   */\n  0x00\n    /* \"#utility.yul\":549:621   */\n  tag_19\n    /* \"#utility.yul\":613:620   */\n  dup6\n    /* \"#utility.yul\":604:610   */\n  dup3\n    /* \"#utility.yul\":593:602   */\n  dup7\n    /* \"#utility.yul\":589:611   */\n  add\n    /* \"#utility.yul\":549:621   */\n  tag_9\n  jump\t// in\ntag_19:\n    /* \"#utility.yul\":539:621   */\n  swap3\n  pop\n    /* \"#utility.yul\":495:631   */\n  pop\n    /* \"#utility.yul\":670:672   */\n  0x20\n    /* \"#utility.yul\":696:760   */\n  tag_20\n    /* \"#utility.yul\":752:759   */\n  dup6\n    /* \"#utility.yul\":743:749   */\n  dup3\n    /* \"#utility.yul\":732:741   */\n  dup7\n    /* \"#utility.yul\":728:750   */\n  add\n    /* \"#utility.yul\":696:760   */\n  tag_13\n  jump\t// in\ntag_20:\n    /* \"#utility.yul\":686:760   */\n  swap2\n  pop\n    /* \"#utility.yul\":641:770   */\n  pop\n    /* \"#utility.yul\":423:777   */\n  swap3\n  pop\n  swap3\n  swap1\n  pop\n  jump\t// out\n    /* \"#utility.yul\":783:1088   */\ntag_6:\n    /* \"#utility.yul\":823:826   */\n  0x00\n    /* \"#utility.yul\":842:862   */\n  tag_22\n    /* \"#utility.yul\":860:861   */\n  dup3\n    /* \"#utility.yul\":842:862   */\n  tag_23\n  jump\t// in\ntag_22:\n    /* \"#utility.yul\":837:862   */\n  swap2\n  pop\n    /* \"#utility.yul\":876:896   */\n  tag_24\n    /* \"#utility.yul\":894:895   */\n  dup4\n    /* \"#utility.yul\":876:896   */\n  tag_23\n  jump\t// in\ntag_24:\n    /* \"#utility.yul\":871:896   */\n  swap3\n  pop\n    /* \"#utility.yul\":1030:1031   */\n  dup3\n    /* \"#utility.yul\":962:1028   */\n  0xffffffffffffffffffffffffffffffffffffffffffffffffffffffffffffffff\n    /* \"#utility.yul\":958:1032   */\n  sub\n    /* \"#utility.yul\":955:956   */\n  dup3\n    /* \"#utility.yul\":952:1033   */\n  gt\n    /* \"#utility.yul\":949:951   */\n  iszero\n  tag_25\n  jumpi\n    /* \"#utility.yul\":1036:1054   */\n  tag_26\n  tag_27\n  jump\t// in\ntag_26:\n    /* \"#utility.yul\":949:951   */\ntag_25:\n    /* \"#utility.yul\":1080:1081   */\n  dup3\n    /* \"#utility.yul\":1077:1078   */\n  dup3\n    /* \"#utility.yul\":1073:1082   */\n  add\n    /* \"#utility.yul\":1066:1082   */\n  swap1\n  pop\n    /* \"#utility.yul\":827:1088   */\n  swap3\n  swap2\n  pop\n  pop\n  jump\t// out\n    /* \"#utility.yul\":1094:1198   */\ntag_28:\n    /* \"#utility.yul\":1139:1146   */\n  0x00\n    /* \"#utility.yul\":1168:1192   */\n  tag_30\n    /* \"#utility.yul\":1186:1191   */\n  dup3\n    /* \"#utility.yul\":1168:1192   */\n  tag_31\n  jump\t// in\ntag_30:\n    /* \"#utility.yul\":1157:1192   */\n  swap1\n  pop\n    /* \"#utility.yul\":1147:1198   */\n  swap2\n  swap1\n  pop\n  jump\t// out\n    /* \"#utility.yul\":1204:1330   */\ntag_31:\n    /* \"#utility.yul\":1241:1248   */\n  0x00\n    /* \"#utility.yul\":1281:1323   */\n  0xffffffffffffffffffffffffffffffffffffffff\n    /* \"#utility.yul\":1274:1279   */\n  dup3\n    /* \"#utility.yul\":1270:1324   */\n  and\n    /* \"#utility.yul\":1259:1324   */\n  swap1\n  pop\n    /* \"#utility.yul\":1249:1330   */\n  swap2\n  swap1\n  pop\n  jump\t// out\n    /* \"#utility.yul\":1336:1413   */\ntag_23:\n    /* \"#utility.yul\":1373:1380   */\n  0x00\n    /* \"#utility.yul\":1402:1407   */\n  dup2\n    /* \"#utility.yul\":1391:1407   */\n  swap1\n  pop\n    /* \"#utility.yul\":1381:1413   */\n  swap2\n  swap1\n  pop\n  jump\t// out\n    /* \"#utility.yul\":1419:1599   */\ntag_27:\n    /* \"#utility.yul\":1467:1544   */\n  0x4e487b7100000000000000000000000000000000000000000000000000000000\n    /* \"#utility.yul\":1464:1465   */\n  0x00\n    /* \"#utility.yul\":1457:1545   */\n  mstore\n    /* \"#utility.yul\":1564:1568   */\n  0x11\n    /* \"#utility.yul\":1561:1562   */\n  0x04\n    /* \"#utility.yul\":1554:1569   */\n  mstore\n    /* \"#utility.yul\":1588:1592   */\n  0x24\n    /* \"#utility.yul\":1585:1586   */\n  0x00\n    /* \"#utility.yul\":1578:1593   */\n  revert\n    /* \"#utility.yul\":1605:1743   */\ntag_12:\n    /* \"#utility.yul\":1686:1718   */\n  tag_36\n    /* \"#utility.yul\":1712:1717   */\n  dup2\n    /* \"#utility.yul\":1686:1718   */\n  tag_28\n  jump\t// in\ntag_36:\n    /* \"#utility.yul\":1679:1684   */\n  dup2\n    /* \"#utility.yul\":1676:1719   */\n  eq\n    /* \"#utility.yul\":1666:1668   */\n  tag_37\n  jumpi\n    /* \"#utility.yul\":1733:1734   */\n  0x00\n    /* \"#utility.yul\":1730:1731   */\n  dup1\n    /* \"#utility.yul\":1723:1735   */\n  revert\n    /* \"#utility.yul\":1666:1668   */\ntag_37:\n    /* \"#utility.yul\":1656:1743   */\n  pop\n  jump\t// out\n    /* \"#utility.yul\":1749:1871   */\ntag_16:\n    /* \"#utility.yul\":1822:1846   */\n  tag_39\n    /* \"#utility.yul\":1840:1845   */\n  dup2\n    /* \"#utility.yul\":1822:1846   */\n  tag_23\n  jump\t// in\ntag_39:\n    /* \"#utility.yul\":1815:1820   */\n  dup2\n    /* \"#utility.yul\":1812:1847   */\n  eq\n    /* \"#utility.yul\":1802:1804   */\n  tag_40\n  jumpi\n    /* \"#utility.yul\":1861:1862   */\n  0x00\n    /* \"#utility.yul\":1858:1859   */\n  dup1\n    /* \"#utility.yul\":1851:1863   */\n  revert\n    /* \"#utility.yul\":1802:1804   */\ntag_40:\n    /* \"#utility.yul\":1792:1871   */\n  pop\n  jump\t// out\n    /* \"solidity-skills/simplepaymentchannel.sol\":70:1785  contract SimplePaymentChannel {... */\ntag_7:\n  dataSize(sub_0)\n  dup1\n  dataOffset(sub_0)\n  0x00\n  codecopy\n  0x00\n  return\nstop\n\nsub_0: assembly {\n        /* \"solidity-skills/simplepaymentchannel.sol\":70:1785  contract SimplePaymentChannel {... */\n      mstore(0x40, 0x80)\n      callvalue\n      dup1\n      iszero\n      tag_1\n      jumpi\n      0x00\n      dup1\n      revert\n    tag_1:\n      pop\n      jumpi(tag_2, lt(calldatasize, 0x04))\n      shr(0xe0, calldataload(0x00))\n      dup1\n      0x415ffba7\n      eq\n      tag_3\n      jumpi\n      dup1\n      0x4665096d\n      eq\n      tag_4\n      jumpi\n      dup1\n      0x66d003ac\n      eq\n      tag_5\n      jumpi\n      dup1\n      0x67e404ce\n      eq\n      tag_6\n      jumpi\n      dup1\n      0x9714378c\n      eq\n      tag_7\n      jumpi\n    tag_2:\n      0x00\n      dup1\n      revert\n        /* \"solidity-skills/simplepaymentchannel.sol\":670:903  function close(uint256 amount, bytes memory signature) external {... */\n    tag_3:\n      tag_8\n      0x04\n      dup1\n      calldatasize\n      sub\n      dup2\n      add\n      swap1\n      tag_9\n      swap2\n      swap1\n      tag_10\n      jump\t// in\n    tag_9:\n      tag_11\n      jump\t// in\n    tag_8:\n      stop\n        /* \"solidity-skills/simplepaymentchannel.sol\":180:205  uint256 public expiration */\n    tag_4:\n      tag_12\n      tag_13\n      jump\t// in\n    tag_12:\n      mload(0x40)\n      tag_14\n      swap2\n      swap1\n      tag_15\n      jump\t// in\n    tag_14:\n      mload(0x40)\n      dup1\n      swap2\n      sub\n      swap1\n      return\n        /* \"solidity-skills/simplepaymentchannel.sol\":141:173  address payable public recipient */\n    tag_5:\n      tag_16\n      tag_17\n      jump\t// in\n    tag_16:\n      mload(0x40)\n      tag_18\n      swap2\n      swap1\n      tag_19\n      jump\t// in\n    tag_18:\n      mload(0x40)\n      dup1\n      swap2\n      sub\n      swap1\n      return\n        /* \"solidity-skills/simplepaymentchannel.sol\":106:135  address payable public sender */\n    tag_6:\n      tag_20\n      tag_21\n      jump\t// in\n    tag_20:\n      mload(0x40)\n      tag_22\n      swap2\n      swap1\n      tag_19\n      jump\t// in\n    tag_22:\n      mload(0x40)\n      dup1\n      swap2\n      sub\n      swap1\n      return\n        /* \"solidity-skills/simplepaymentchannel.sol\":909:1086  function extend(uint256 newExpiration) external  {... */\n    tag_7:\n      tag_23\n      0x04\n      dup1\n      calldatasize\n      sub\n      dup2\n      add\n      swap1\n      tag_24\n      swap2\n      swap1\n      tag_25\n      jump\t// in\n    tag_24:\n      tag_26\n      jump\t// in\n    tag_23:\n      stop\n        /* \"solidity-skills/simplepaymentchannel.sol\":670:903  function close(uint256 amount, bytes memory signature) external {... */\n    tag_11:\n        /* \"solidity-skills/simplepaymentchannel.sol\":766:775  recipient */\n      0x01\n      0x00\n      swap1\n      sload\n      swap1\n      0x0100\n      exp\n      swap1\n      div\n      0xffffffffffffffffffffffffffffffffffffffff\n      and\n        /* \"solidity-skills/simplepaymentchannel.sol\":752:775  msg.sender == recipient */\n      0xffffffffffffffffffffffffffffffffffffffff\n      and\n        /* \"solidity-skills/simplepaymentchannel.sol\":752:762  msg.sender */\n      caller\n        /* \"solidity-skills/simplepaymentchannel.sol\":752:775  msg.sender == recipient */\n      0xffffffffffffffffffffffffffffffffffffffff\n      and\n      eq\n        /* \"solidity-skills/simplepaymentchannel.sol\":744:776  require(msg.sender == recipient) */\n      tag_28\n      jumpi\n      0x00\n      dup1\n      revert\n    tag_28:\n        /* \"solidity-skills/simplepaymentchannel.sol\":794:828  isValidSignature(amount,signature) */\n      tag_29\n        /* \"solidity-skills/simplepaymentchannel.sol\":811:817  amount */\n      dup3\n        /* \"solidity-skills/simplepaymentchannel.sol\":818:827  signature */\n      dup3\n        /* \"solidity-skills/simplepaymentchannel.sol\":794:810  isValidSignature */\n      tag_30\n        /* \"solidity-skills/simplepaymentchannel.sol\":794:828  isValidSignature(amount,signature) */\n      jump\t// in\n    tag_29:\n        /* \"solidity-skills/simplepaymentchannel.sol\":786:829  require(isValidSignature(amount,signature)) */\n      tag_31\n      jumpi\n      0x00\n      dup1\n      revert\n    tag_31:\n        /* \"solidity-skills/simplepaymentchannel.sol\":840:849  recipient */\n      0x01\n      0x00\n      swap1\n      sload\n      swap1\n      0x0100\n      exp\n      swap1\n      div\n      0xffffffffffffffffffffffffffffffffffffffff\n      and\n        /* \"solidity-skills/simplepaymentchannel.sol\":840:858  recipient.transfer */\n      0xffffffffffffffffffffffffffffffffffffffff\n      and\n        /* \"solidity-skills/simplepaymentchannel.sol\":840:866  recipient.transfer(amount) */\n      0x08fc\n        /* \"solidity-skills/simplepaymentchannel.sol\":859:865  amount */\n      dup4\n        /* \"solidity-skills/simplepaymentchannel.sol\":840:866  recipient.transfer(amount) */\n      swap1\n      dup2\n      iszero\n      mul\n      swap1\n      mload(0x40)\n      0x00\n      mload(0x40)\n      dup1\n      dup4\n      sub\n      dup2\n      dup6\n      dup9\n      dup9\n      call\n      swap4\n      pop\n      pop\n      pop\n      pop\n      iszero\n      dup1\n      iszero\n      tag_33\n      jumpi\n      returndatasize\n      0x00\n      dup1\n      returndatacopy\n      revert(0x00, returndatasize)\n    tag_33:\n      pop\n        /* \"solidity-skills/simplepaymentchannel.sol\":889:895  sender */\n      0x00\n      dup1\n      sload\n      swap1\n      0x0100\n      exp\n      swap1\n      div\n      0xffffffffffffffffffffffffffffffffffffffff\n      and\n        /* \"solidity-skills/simplepaymentchannel.sol\":876:896  selfdestruct(sender) */\n      0xffffffffffffffffffffffffffffffffffffffff\n      and\n      selfdestruct\n        /* \"solidity-skills/simplepaymentchannel.sol\":180:205  uint256 public expiration */\n    tag_13:\n      sload(0x02)\n      dup2\n      jump\t// out\n        /* \"solidity-skills/simplepaymentchannel.sol\":141:173  address payable public recipient */\n    tag_17:\n      0x01\n      0x00\n      swap1\n      sload\n      swap1\n      0x0100\n      exp\n      swap1\n      div\n      0xffffffffffffffffffffffffffffffffffffffff\n      and\n      dup2\n      jump\t// out\n        /* \"solidity-skills/simplepaymentchannel.sol\":106:135  address payable public sender */\n    tag_21:\n      0x00\n      dup1\n      sload\n      swap1\n      0x0100\n      exp\n      swap1\n      div\n      0xffffffffffffffffffffffffffffffffffffffff\n      and\n      dup2\n      jump\t// out\n        /* \"solidity-skills/simplepaymentchannel.sol\":909:1086  function extend(uint256 newExpiration) external  {... */\n    tag_26:\n        /* \"solidity-skills/simplepaymentchannel.sol\":990:996  sender */\n      0x00\n      dup1\n      sload\n      swap1\n      0x0100\n      exp\n      swap1\n      div\n      0xffffffffffffffffffffffffffffffffffffffff\n      and\n        /* \"solidity-skills/simplepaymentchannel.sol\":976:996  msg.sender == sender */\n      0xffffffffffffffffffffffffffffffffffffffff\n      and\n        /* \"solidity-skills/simplepaymentchannel.sol\":976:986  msg.sender */\n      caller\n        /* \"solidity-skills/simplepaymentchannel.sol\":976:996  msg.sender == sender */\n      0xffffffffffffffffffffffffffffffffffffffff\n      and\n      eq\n        /* \"solidity-skills/simplepaymentchannel.sol\":968:997  require(msg.sender == sender) */\n      tag_35\n      jumpi\n      0x00\n      dup1\n      revert\n    tag_35:\n        /* \"solidity-skills/simplepaymentchannel.sol\":1031:1041  expiration */\n      sload(0x02)\n        /* \"solidity-skills/simplepaymentchannel.sol\":1015:1028  newExpiration */\n      dup2\n        /* \"solidity-skills/simplepaymentchannel.sol\":1015:1041  newExpiration > expiration */\n      gt\n        /* \"solidity-skills/simplepaymentchannel.sol\":1007:1042  require(newExpiration > expiration) */\n      tag_36\n      jumpi\n      0x00\n      dup1\n      revert\n    tag_36:\n        /* \"solidity-skills/simplepaymentchannel.sol\":1066:1079  newExpiration */\n      dup1\n        /* \"solidity-skills/simplepaymentchannel.sol\":1053:1063  expiration */\n      0x02\n        /* \"solidity-skills/simplepaymentchannel.sol\":1053:1079  expiration = newExpiration */\n      dup2\n      swap1\n      sstore\n      pop\n        /* \"solidity-skills/simplepaymentchannel.sol\":909:1086  function extend(uint256 newExpiration) external  {... */\n      pop\n      jump\t// out\n        /* \"solidity-skills/simplepaymentchannel.sol\":426:664  function isValidSignature(uint256 amount,bytes memory signature) internal view returns(bool) {... */\n    tag_30:\n        /* \"solidity-skills/simplepaymentchannel.sol\":513:517  bool */\n      0x00\n        /* \"solidity-skills/simplepaymentchannel.sol\":529:544  bytes32 message */\n      dup1\n        /* \"solidity-skills/simplepaymentchannel.sol\":547:597  prefixed(keccak256(abi.encodePacked(this,amount))) */\n      tag_38\n        /* \"solidity-skills/simplepaymentchannel.sol\":583:587  this */\n      address\n        /* \"solidity-skills/simplepaymentchannel.sol\":588:594  amount */\n      dup6\n        /* \"solidity-skills/simplepaymentchannel.sol\":566:595  abi.encodePacked(this,amount) */\n      add(0x20, mload(0x40))\n      tag_39\n      swap3\n      swap2\n      swap1\n      tag_40\n      jump\t// in\n    tag_39:\n      mload(0x40)\n      0x20\n      dup2\n      dup4\n      sub\n      sub\n      dup2\n      mstore\n      swap1\n      0x40\n      mstore\n        /* \"solidity-skills/simplepaymentchannel.sol\":556:596  keccak256(abi.encodePacked(this,amount)) */\n      dup1\n      mload\n      swap1\n      0x20\n      add\n      keccak256\n        /* \"solidity-skills/simplepaymentchannel.sol\":547:555  prefixed */\n      tag_41\n        /* \"solidity-skills/simplepaymentchannel.sol\":547:597  prefixed(keccak256(abi.encodePacked(this,amount))) */\n      jump\t// in\n    tag_38:\n        /* \"solidity-skills/simplepaymentchannel.sol\":529:597  bytes32 message = prefixed(keccak256(abi.encodePacked(this,amount))) */\n      swap1\n      pop\n        /* \"solidity-skills/simplepaymentchannel.sol\":651:657  sender */\n      0x00\n      dup1\n      sload\n      swap1\n      0x0100\n      exp\n      swap1\n      div\n      0xffffffffffffffffffffffffffffffffffffffff\n      and\n        /* \"solidity-skills/simplepaymentchannel.sol\":615:657  recoverSigner(message,signature) == sender */\n      0xffffffffffffffffffffffffffffffffffffffff\n      and\n        /* \"solidity-skills/simplepaymentchannel.sol\":615:647  recoverSigner(message,signature) */\n      tag_42\n        /* \"solidity-skills/simplepaymentchannel.sol\":629:636  message */\n      dup3\n        /* \"solidity-skills/simplepaymentchannel.sol\":637:646  signature */\n      dup6\n        /* \"solidity-skills/simplepaymentchannel.sol\":615:628  recoverSigner */\n      tag_43\n        /* \"solidity-skills/simplepaymentchannel.sol\":615:647  recoverSigner(message,signature) */\n      jump\t// in\n    tag_42:\n        /* \"solidity-skills/simplepaymentchannel.sol\":615:657  recoverSigner(message,signature) == sender */\n      0xffffffffffffffffffffffffffffffffffffffff\n      and\n      eq\n        /* \"solidity-skills/simplepaymentchannel.sol\":608:657  return recoverSigner(message,signature) == sender */\n      swap2\n      pop\n      pop\n        /* \"solidity-skills/simplepaymentchannel.sol\":426:664  function isValidSignature(uint256 amount,bytes memory signature) internal view returns(bool) {... */\n      swap3\n      swap2\n      pop\n      pop\n      jump\t// out\n        /* \"solidity-skills/simplepaymentchannel.sol\":1624:1781  function prefixed(bytes32 hash) internal pure returns (bytes32) {... */\n    tag_41:\n        /* \"solidity-skills/simplepaymentchannel.sol\":1679:1686  bytes32 */\n      0x00\n        /* \"solidity-skills/simplepaymentchannel.sol\":1768:1772  hash */\n      dup2\n        /* \"solidity-skills/simplepaymentchannel.sol\":1716:1773  abi.encodePacked(\"\\x19Ethereum Signed Message:\\n32\",hash) */\n      add(0x20, mload(0x40))\n      tag_45\n      swap2\n      swap1\n      tag_46\n      jump\t// in\n    tag_45:\n      mload(0x40)\n      0x20\n      dup2\n      dup4\n      sub\n      sub\n      dup2\n      mstore\n      swap1\n      0x40\n      mstore\n        /* \"solidity-skills/simplepaymentchannel.sol\":1706:1774  keccak256(abi.encodePacked(\"\\x19Ethereum Signed Message:\\n32\",hash)) */\n      dup1\n      mload\n      swap1\n      0x20\n      add\n      keccak256\n        /* \"solidity-skills/simplepaymentchannel.sol\":1699:1774  return keccak256(abi.encodePacked(\"\\x19Ethereum Signed Message:\\n32\",hash)) */\n      swap1\n      pop\n        /* \"solidity-skills/simplepaymentchannel.sol\":1624:1781  function prefixed(bytes32 hash) internal pure returns (bytes32) {... */\n      swap2\n      swap1\n      pop\n      jump\t// out\n        /* \"solidity-skills/simplepaymentchannel.sol\":1406:1618  function recoverSigner(bytes32 message,bytes memory sig) internal pure returns (address) {... */\n    tag_43:\n        /* \"solidity-skills/simplepaymentchannel.sol\":1486:1493  address */\n      0x00\n        /* \"solidity-skills/simplepaymentchannel.sol\":1507:1514  uint8 v */\n      dup1\n        /* \"solidity-skills/simplepaymentchannel.sol\":1516:1525  bytes32 r */\n      0x00\n        /* \"solidity-skills/simplepaymentchannel.sol\":1527:1536  bytes32 s */\n      dup1\n        /* \"solidity-skills/simplepaymentchannel.sol\":1540:1559  splitSignature(sig) */\n      tag_48\n        /* \"solidity-skills/simplepaymentchannel.sol\":1555:1558  sig */\n      dup6\n        /* \"solidity-skills/simplepaymentchannel.sol\":1540:1554  splitSignature */\n      tag_49\n        /* \"solidity-skills/simplepaymentchannel.sol\":1540:1559  splitSignature(sig) */\n      jump\t// in\n    tag_48:\n        /* \"solidity-skills/simplepaymentchannel.sol\":1506:1559  (uint8 v, bytes32 r, bytes32 s) = splitSignature(sig) */\n      swap3\n      pop\n      swap3\n      pop\n      swap3\n      pop\n        /* \"solidity-skills/simplepaymentchannel.sol\":1576:1603  ecrecover(message, v, r, s) */\n      0x01\n        /* \"solidity-skills/simplepaymentchannel.sol\":1586:1593  message */\n      dup7\n        /* \"solidity-skills/simplepaymentchannel.sol\":1595:1596  v */\n      dup5\n        /* \"solidity-skills/simplepaymentchannel.sol\":1598:1599  r */\n      dup5\n        /* \"solidity-skills/simplepaymentchannel.sol\":1601:1602  s */\n      dup5\n        /* \"solidity-skills/simplepaymentchannel.sol\":1576:1603  ecrecover(message, v, r, s) */\n      mload(0x40)\n      0x00\n      dup2\n      mstore\n      0x20\n      add\n      0x40\n      mstore\n      mload(0x40)\n      tag_50\n      swap5\n      swap4\n      swap3\n      swap2\n      swap1\n      tag_51\n      jump\t// in\n    tag_50:\n      0x20\n      mload(0x40)\n      0x20\n      dup2\n      sub\n      swap1\n      dup1\n      dup5\n      sub\n      swap1\n      dup6\n      gas\n      staticcall\n      iszero\n      dup1\n      iszero\n      tag_53\n      jumpi\n      returndatasize\n      0x00\n      dup1\n      returndatacopy\n      revert(0x00, returndatasize)\n    tag_53:\n      pop\n      pop\n      pop\n      mload(sub(mload(0x40), 0x20))\n        /* \"solidity-skills/simplepaymentchannel.sol\":1569:1603  return ecrecover(message, v, r, s) */\n      swap4\n      pop\n      pop\n      pop\n      pop\n        /* \"solidity-skills/simplepaymentchannel.sol\":1406:1618  function recoverSigner(bytes32 message,bytes memory sig) internal pure returns (address) {... */\n      swap3\n      swap2\n      pop\n      pop\n      jump\t// out\n        /* \"solidity-skills/simplepaymentchannel.sol\":1092:1400  function splitSignature(bytes memory sig) internal pure returns (uint8 v,bytes32 r, bytes32 s) {... */\n    tag_49:\n        /* \"solidity-skills/simplepaymentchannel.sol\":1157:1164  uint8 v */\n      0x00\n        /* \"solidity-skills/simplepaymentchannel.sol\":1165:1174  bytes32 r */\n      dup1\n        /* \"solidity-skills/simplepaymentchannel.sol\":1176:1185  bytes32 s */\n      0x00\n        /* \"solidity-skills/simplepaymentchannel.sol\":1219:1221  65 */\n      0x41\n        /* \"solidity-skills/simplepaymentchannel.sol\":1205:1208  sig */\n      dup5\n        /* \"solidity-skills/simplepaymentchannel.sol\":1205:1215  sig.length */\n      mload\n        /* \"solidity-skills/simplepaymentchannel.sol\":1205:1221  sig.length == 65 */\n      eq\n        /* \"solidity-skills/simplepaymentchannel.sol\":1197:1222  require(sig.length == 65) */\n      tag_55\n      jumpi\n      0x00\n      dup1\n      revert\n    tag_55:\n        /* \"solidity-skills/simplepaymentchannel.sol\":1275:1277  32 */\n      0x20\n        /* \"solidity-skills/simplepaymentchannel.sol\":1271:1274  sig */\n      dup5\n        /* \"solidity-skills/simplepaymentchannel.sol\":1267:1278  add(sig,32) */\n      add\n        /* \"solidity-skills/simplepaymentchannel.sol\":1261:1279  mload(add(sig,32)) */\n      mload\n        /* \"solidity-skills/simplepaymentchannel.sol\":1256:1279  r := mload(add(sig,32)) */\n      swap2\n      pop\n        /* \"solidity-skills/simplepaymentchannel.sol\":1311:1313  64 */\n      0x40\n        /* \"solidity-skills/simplepaymentchannel.sol\":1307:1310  sig */\n      dup5\n        /* \"solidity-skills/simplepaymentchannel.sol\":1303:1314  add(sig,64) */\n      add\n        /* \"solidity-skills/simplepaymentchannel.sol\":1297:1315  mload(add(sig,64)) */\n      mload\n        /* \"solidity-skills/simplepaymentchannel.sol\":1292:1315  s := mload(add(sig,64)) */\n      swap1\n      pop\n        /* \"solidity-skills/simplepaymentchannel.sol\":1354:1356  96 */\n      0x60\n        /* \"solidity-skills/simplepaymentchannel.sol\":1350:1353  sig */\n      dup5\n        /* \"solidity-skills/simplepaymentchannel.sol\":1346:1357  add(sig,96) */\n      add\n        /* \"solidity-skills/simplepaymentchannel.sol\":1340:1358  mload(add(sig,96)) */\n      mload\n        /* \"solidity-skills/simplepaymentchannel.sol\":1338:1339  0 */\n      0x00\n        /* \"solidity-skills/simplepaymentchannel.sol\":1333:1359  byte(0,mload(add(sig,96))) */\n      byte\n        /* \"solidity-skills/simplepaymentchannel.sol\":1328:1359  v := byte(0,mload(add(sig,96))) */\n      swap3\n      pop\n        /* \"solidity-skills/simplepaymentchannel.sol\":1092:1400  function splitSignature(bytes memory sig) internal pure returns (uint8 v,bytes32 r, bytes32 s) {... */\n      swap2\n      swap4\n      swap1\n      swap3\n      pop\n      jump\t// out\n        /* \"#utility.yul\":7:350   */\n    tag_57:\n        /* \"#utility.yul\":84:89   */\n      0x00\n        /* \"#utility.yul\":109:174   */\n      tag_59\n        /* \"#utility.yul\":125:173   */\n      tag_60\n        /* \"#utility.yul\":166:172   */\n      dup5\n        /* \"#utility.yul\":125:173   */\n      tag_61\n      jump\t// in\n    tag_60:\n        /* \"#utility.yul\":109:174   */\n      tag_62\n      jump\t// in\n    tag_59:\n        /* \"#utility.yul\":100:174   */\n      swap1\n      pop\n        /* \"#utility.yul\":197:203   */\n      dup3\n        /* \"#utility.yul\":190:195   */\n      dup2\n        /* \"#utility.yul\":183:204   */\n      mstore\n        /* \"#utility.yul\":235:239   */\n      0x20\n        /* \"#utility.yul\":228:233   */\n      dup2\n        /* \"#utility.yul\":224:240   */\n      add\n        /* \"#utility.yul\":273:276   */\n      dup5\n        /* \"#utility.yul\":264:270   */\n      dup5\n        /* \"#utility.yul\":259:262   */\n      dup5\n        /* \"#utility.yul\":255:271   */\n      add\n        /* \"#utility.yul\":252:277   */\n      gt\n        /* \"#utility.yul\":249:251   */\n      iszero\n      tag_63\n      jumpi\n        /* \"#utility.yul\":290:291   */\n      0x00\n        /* \"#utility.yul\":287:288   */\n      dup1\n        /* \"#utility.yul\":280:292   */\n      revert\n        /* \"#utility.yul\":249:251   */\n    tag_63:\n        /* \"#utility.yul\":303:344   */\n      tag_64\n        /* \"#utility.yul\":337:343   */\n      dup5\n        /* \"#utility.yul\":332:335   */\n      dup3\n        /* \"#utility.yul\":327:330   */\n      dup6\n        /* \"#utility.yul\":303:344   */\n      tag_65\n      jump\t// in\n    tag_64:\n        /* \"#utility.yul\":90:350   */\n      pop\n      swap4\n      swap3\n      pop\n      pop\n      pop\n      jump\t// out\n        /* \"#utility.yul\":369:640   */\n    tag_66:\n        /* \"#utility.yul\":424:429   */\n      0x00\n        /* \"#utility.yul\":473:476   */\n      dup3\n        /* \"#utility.yul\":466:470   */\n      0x1f\n        /* \"#utility.yul\":458:464   */\n      dup4\n        /* \"#utility.yul\":454:471   */\n      add\n        /* \"#utility.yul\":450:477   */\n      slt\n        /* \"#utility.yul\":440:442   */\n      tag_68\n      jumpi\n        /* \"#utility.yul\":491:492   */\n      0x00\n        /* \"#utility.yul\":488:489   */\n      dup1\n        /* \"#utility.yul\":481:493   */\n      revert\n        /* \"#utility.yul\":440:442   */\n    tag_68:\n        /* \"#utility.yul\":531:537   */\n      dup2\n        /* \"#utility.yul\":518:538   */\n      calldataload\n        /* \"#utility.yul\":556:634   */\n      tag_69\n        /* \"#utility.yul\":630:633   */\n      dup5\n        /* \"#utility.yul\":622:628   */\n      dup3\n        /* \"#utility.yul\":615:619   */\n      0x20\n        /* \"#utility.yul\":607:613   */\n      dup7\n        /* \"#utility.yul\":603:620   */\n      add\n        /* \"#utility.yul\":556:634   */\n      tag_57\n      jump\t// in\n    tag_69:\n        /* \"#utility.yul\":547:634   */\n      swap2\n      pop\n        /* \"#utility.yul\":430:640   */\n      pop\n      swap3\n      swap2\n      pop\n      pop\n      jump\t// out\n        /* \"#utility.yul\":646:785   */\n    tag_70:\n        /* \"#utility.yul\":692:697   */\n      0x00\n        /* \"#utility.yul\":730:736   */\n      dup2\n        /* \"#utility.yul\":717:737   */\n      calldataload\n        /* \"#utility.yul\":708:737   */\n      swap1\n      pop\n        /* \"#utility.yul\":746:779   */\n      tag_72\n        /* \"#utility.yul\":773:778   */\n      dup2\n        /* \"#utility.yul\":746:779   */\n      tag_73\n      jump\t// in\n    tag_72:\n        /* \"#utility.yul\":698:785   */\n      swap3\n      swap2\n      pop\n      pop\n      jump\t// out\n        /* \"#utility.yul\":791:1053   */\n    tag_25:\n        /* \"#utility.yul\":850:856   */\n      0x00\n        /* \"#utility.yul\":899:901   */\n      0x20\n        /* \"#utility.yul\":887:896   */\n      dup3\n        /* \"#utility.yul\":878:885   */\n      dup5\n        /* \"#utility.yul\":874:897   */\n      sub\n        /* \"#utility.yul\":870:902   */\n      slt\n        /* \"#utility.yul\":867:869   */\n      iszero\n      tag_75\n      jumpi\n        /* \"#utility.yul\":915:916   */\n      0x00\n        /* \"#utility.yul\":912:913   */\n      dup1\n        /* \"#utility.yul\":905:917   */\n      revert\n        /* \"#utility.yul\":867:869   */\n    tag_75:\n        /* \"#utility.yul\":958:959   */\n      0x00\n        /* \"#utility.yul\":983:1036   */\n      tag_76\n        /* \"#utility.yul\":1028:1035   */\n      dup5\n        /* \"#utility.yul\":1019:1025   */\n      dup3\n        /* \"#utility.yul\":1008:1017   */\n      dup6\n        /* \"#utility.yul\":1004:1026   */\n      add\n        /* \"#utility.yul\":983:1036   */\n      tag_70\n      jump\t// in\n    tag_76:\n        /* \"#utility.yul\":973:1036   */\n      swap2\n      pop\n        /* \"#utility.yul\":929:1046   */\n      pop\n        /* \"#utility.yul\":857:1053   */\n      swap3\n      swap2\n      pop\n      pop\n      jump\t// out\n        /* \"#utility.yul\":1059:1577   */\n    tag_10:\n        /* \"#utility.yul\":1136:1142   */\n      0x00\n        /* \"#utility.yul\":1144:1150   */\n      dup1\n        /* \"#utility.yul\":1193:1195   */\n      0x40\n        /* \"#utility.yul\":1181:1190   */\n      dup4\n        /* \"#utility.yul\":1172:1179   */\n      dup6\n        /* \"#utility.yul\":1168:1191   */\n      sub\n        /* \"#utility.yul\":1164:1196   */\n      slt\n        /* \"#utility.yul\":1161:1163   */\n      iszero\n      tag_78\n      jumpi\n        /* \"#utility.yul\":1209:1210   */\n      0x00\n        /* \"#utility.yul\":1206:1207   */\n      dup1\n        /* \"#utility.yul\":1199:1211   */\n      revert\n        /* \"#utility.yul\":1161:1163   */\n    tag_78:\n        /* \"#utility.yul\":1252:1253   */\n      0x00\n        /* \"#utility.yul\":1277:1330   */\n      tag_79\n        /* \"#utility.yul\":1322:1329   */\n      dup6\n        /* \"#utility.yul\":1313:1319   */\n      dup3\n        /* \"#utility.yul\":1302:1311   */\n      dup7\n        /* \"#utility.yul\":1298:1320   */\n      add\n        /* \"#utility.yul\":1277:1330   */\n      tag_70\n      jump\t// in\n    tag_79:\n        /* \"#utility.yul\":1267:1330   */\n      swap3\n      pop\n        /* \"#utility.yul\":1223:1340   */\n      pop\n        /* \"#utility.yul\":1407:1409   */\n      0x20\n        /* \"#utility.yul\":1396:1405   */\n      dup4\n        /* \"#utility.yul\":1392:1410   */\n      add\n        /* \"#utility.yul\":1379:1411   */\n      calldataload\n        /* \"#utility.yul\":1438:1456   */\n      0xffffffffffffffff\n        /* \"#utility.yul\":1430:1436   */\n      dup2\n        /* \"#utility.yul\":1427:1457   */\n      gt\n        /* \"#utility.yul\":1424:1426   */\n      iszero\n      tag_80\n      jumpi\n        /* \"#utility.yul\":1470:1471   */\n      0x00\n        /* \"#utility.yul\":1467:1468   */\n      dup1\n        /* \"#utility.yul\":1460:1472   */\n      revert\n        /* \"#utility.yul\":1424:1426   */\n    tag_80:\n        /* \"#utility.yul\":1498:1560   */\n      tag_81\n        /* \"#utility.yul\":1552:1559   */\n      dup6\n        /* \"#utility.yul\":1543:1549   */\n      dup3\n        /* \"#utility.yul\":1532:1541   */\n      dup7\n        /* \"#utility.yul\":1528:1550   */\n      add\n        /* \"#utility.yul\":1498:1560   */\n      tag_66\n      jump\t// in\n    tag_81:\n        /* \"#utility.yul\":1488:1560   */\n      swap2\n      pop\n        /* \"#utility.yul\":1350:1570   */\n      pop\n        /* \"#utility.yul\":1151:1577   */\n      swap3\n      pop\n      swap3\n      swap1\n      pop\n      jump\t// out\n        /* \"#utility.yul\":1583:1725   */\n    tag_82:\n        /* \"#utility.yul\":1686:1718   */\n      tag_84\n        /* \"#utility.yul\":1712:1717   */\n      dup2\n        /* \"#utility.yul\":1686:1718   */\n      tag_85\n      jump\t// in\n    tag_84:\n        /* \"#utility.yul\":1681:1684   */\n      dup3\n        /* \"#utility.yul\":1674:1719   */\n      mstore\n        /* \"#utility.yul\":1664:1725   */\n      pop\n      pop\n      jump\t// out\n        /* \"#utility.yul\":1731:1849   */\n    tag_86:\n        /* \"#utility.yul\":1818:1842   */\n      tag_88\n        /* \"#utility.yul\":1836:1841   */\n      dup2\n        /* \"#utility.yul\":1818:1842   */\n      tag_89\n      jump\t// in\n    tag_88:\n        /* \"#utility.yul\":1813:1816   */\n      dup3\n        /* \"#utility.yul\":1806:1843   */\n      mstore\n        /* \"#utility.yul\":1796:1849   */\n      pop\n      pop\n      jump\t// out\n        /* \"#utility.yul\":1855:2012   */\n    tag_90:\n        /* \"#utility.yul\":1960:2005   */\n      tag_92\n        /* \"#utility.yul\":1980:2004   */\n      tag_93\n        /* \"#utility.yul\":1998:2003   */\n      dup3\n        /* \"#utility.yul\":1980:2004   */\n      tag_89\n      jump\t// in\n    tag_93:\n        /* \"#utility.yul\":1960:2005   */\n      tag_94\n      jump\t// in\n    tag_92:\n        /* \"#utility.yul\":1955:1958   */\n      dup3\n        /* \"#utility.yul\":1948:2006   */\n      mstore\n        /* \"#utility.yul\":1938:2012   */\n      pop\n      pop\n      jump\t// out\n        /* \"#utility.yul\":2018:2244   */\n    tag_95:\n        /* \"#utility.yul\":2151:2237   */\n      tag_97\n        /* \"#utility.yul\":2171:2236   */\n      tag_98\n        /* \"#utility.yul\":2230:2235   */\n      dup3\n        /* \"#utility.yul\":2171:2236   */\n      tag_99\n      jump\t// in\n    tag_98:\n        /* \"#utility.yul\":2151:2237   */\n      tag_100\n      jump\t// in\n    tag_97:\n        /* \"#utility.yul\":2146:2149   */\n      dup3\n        /* \"#utility.yul\":2139:2238   */\n      mstore\n        /* \"#utility.yul\":2129:2244   */\n      pop\n      pop\n      jump\t// out\n        /* \"#utility.yul\":2250:2652   */\n    tag_101:\n        /* \"#utility.yul\":2410:2413   */\n      0x00\n        /* \"#utility.yul\":2431:2516   */\n      tag_103\n        /* \"#utility.yul\":2513:2515   */\n      0x1c\n        /* \"#utility.yul\":2508:2511   */\n      dup4\n        /* \"#utility.yul\":2431:2516   */\n      tag_104\n      jump\t// in\n    tag_103:\n        /* \"#utility.yul\":2424:2516   */\n      swap2\n      pop\n        /* \"#utility.yul\":2525:2618   */\n      tag_105\n        /* \"#utility.yul\":2614:2617   */\n      dup3\n        /* \"#utility.yul\":2525:2618   */\n      tag_106\n      jump\t// in\n    tag_105:\n        /* \"#utility.yul\":2643:2645   */\n      0x1c\n        /* \"#utility.yul\":2638:2641   */\n      dup3\n        /* \"#utility.yul\":2634:2646   */\n      add\n        /* \"#utility.yul\":2627:2646   */\n      swap1\n      pop\n        /* \"#utility.yul\":2414:2652   */\n      swap2\n      swap1\n      pop\n      jump\t// out\n        /* \"#utility.yul\":2658:2776   */\n    tag_107:\n        /* \"#utility.yul\":2745:2769   */\n      tag_109\n        /* \"#utility.yul\":2763:2768   */\n      dup2\n        /* \"#utility.yul\":2745:2769   */\n      tag_110\n      jump\t// in\n    tag_109:\n        /* \"#utility.yul\":2740:2743   */\n      dup3\n        /* \"#utility.yul\":2733:2770   */\n      mstore\n        /* \"#utility.yul\":2723:2776   */\n      pop\n      pop\n      jump\t// out\n        /* \"#utility.yul\":2782:2939   */\n    tag_111:\n        /* \"#utility.yul\":2887:2932   */\n      tag_113\n        /* \"#utility.yul\":2907:2931   */\n      tag_114\n        /* \"#utility.yul\":2925:2930   */\n      dup3\n        /* \"#utility.yul\":2907:2931   */\n      tag_110\n      jump\t// in\n    tag_114:\n        /* \"#utility.yul\":2887:2932   */\n      tag_115\n      jump\t// in\n    tag_113:\n        /* \"#utility.yul\":2882:2885   */\n      dup3\n        /* \"#utility.yul\":2875:2933   */\n      mstore\n        /* \"#utility.yul\":2865:2939   */\n      pop\n      pop\n      jump\t// out\n        /* \"#utility.yul\":2945:3057   */\n    tag_116:\n        /* \"#utility.yul\":3028:3050   */\n      tag_118\n        /* \"#utility.yul\":3044:3049   */\n      dup2\n        /* \"#utility.yul\":3028:3050   */\n      tag_119\n      jump\t// in\n    tag_118:\n        /* \"#utility.yul\":3023:3026   */\n      dup3\n        /* \"#utility.yul\":3016:3051   */\n      mstore\n        /* \"#utility.yul\":3006:3057   */\n      pop\n      pop\n      jump\t// out\n        /* \"#utility.yul\":3063:3516   */\n    tag_40:\n        /* \"#utility.yul\":3231:3234   */\n      0x00\n        /* \"#utility.yul\":3246:3349   */\n      tag_121\n        /* \"#utility.yul\":3345:3348   */\n      dup3\n        /* \"#utility.yul\":3336:3342   */\n      dup6\n        /* \"#utility.yul\":3246:3349   */\n      tag_95\n      jump\t// in\n    tag_121:\n        /* \"#utility.yul\":3374:3376   */\n      0x14\n        /* \"#utility.yul\":3369:3372   */\n      dup3\n        /* \"#utility.yul\":3365:3377   */\n      add\n        /* \"#utility.yul\":3358:3377   */\n      swap2\n      pop\n        /* \"#utility.yul\":3387:3462   */\n      tag_122\n        /* \"#utility.yul\":3458:3461   */\n      dup3\n        /* \"#utility.yul\":3449:3455   */\n      dup5\n        /* \"#utility.yul\":3387:3462   */\n      tag_111\n      jump\t// in\n    tag_122:\n        /* \"#utility.yul\":3487:3489   */\n      0x20\n        /* \"#utility.yul\":3482:3485   */\n      dup3\n        /* \"#utility.yul\":3478:3490   */\n      add\n        /* \"#utility.yul\":3471:3490   */\n      swap2\n      pop\n        /* \"#utility.yul\":3507:3510   */\n      dup2\n        /* \"#utility.yul\":3500:3510   */\n      swap1\n      pop\n        /* \"#utility.yul\":3235:3516   */\n      swap4\n      swap3\n      pop\n      pop\n      pop\n      jump\t// out\n        /* \"#utility.yul\":3522:4044   */\n    tag_46:\n        /* \"#utility.yul\":3735:3738   */\n      0x00\n        /* \"#utility.yul\":3757:3905   */\n      tag_124\n        /* \"#utility.yul\":3901:3904   */\n      dup3\n        /* \"#utility.yul\":3757:3905   */\n      tag_101\n      jump\t// in\n    tag_124:\n        /* \"#utility.yul\":3750:3905   */\n      swap2\n      pop\n        /* \"#utility.yul\":3915:3990   */\n      tag_125\n        /* \"#utility.yul\":3986:3989   */\n      dup3\n        /* \"#utility.yul\":3977:3983   */\n      dup5\n        /* \"#utility.yul\":3915:3990   */\n      tag_90\n      jump\t// in\n    tag_125:\n        /* \"#utility.yul\":4015:4017   */\n      0x20\n        /* \"#utility.yul\":4010:4013   */\n      dup3\n        /* \"#utility.yul\":4006:4018   */\n      add\n        /* \"#utility.yul\":3999:4018   */\n      swap2\n      pop\n        /* \"#utility.yul\":4035:4038   */\n      dup2\n        /* \"#utility.yul\":4028:4038   */\n      swap1\n      pop\n        /* \"#utility.yul\":3739:4044   */\n      swap3\n      swap2\n      pop\n      pop\n      jump\t// out\n        /* \"#utility.yul\":4050:4304   */\n    tag_19:\n        /* \"#utility.yul\":4159:4163   */\n      0x00\n        /* \"#utility.yul\":4197:4199   */\n      0x20\n        /* \"#utility.yul\":4186:4195   */\n      dup3\n        /* \"#utility.yul\":4182:4200   */\n      add\n        /* \"#utility.yul\":4174:4200   */\n      swap1\n      pop\n        /* \"#utility.yul\":4210:4297   */\n      tag_127\n        /* \"#utility.yul\":4294:4295   */\n      0x00\n        /* \"#utility.yul\":4283:4292   */\n      dup4\n        /* \"#utility.yul\":4279:4296   */\n      add\n        /* \"#utility.yul\":4270:4276   */\n      dup5\n        /* \"#utility.yul\":4210:4297   */\n      tag_82\n      jump\t// in\n    tag_127:\n        /* \"#utility.yul\":4164:4304   */\n      swap3\n      swap2\n      pop\n      pop\n      jump\t// out\n        /* \"#utility.yul\":4310:4855   */\n    tag_51:\n        /* \"#utility.yul\":4483:4487   */\n      0x00\n        /* \"#utility.yul\":4521:4524   */\n      0x80\n        /* \"#utility.yul\":4510:4519   */\n      dup3\n        /* \"#utility.yul\":4506:4525   */\n      add\n        /* \"#utility.yul\":4498:4525   */\n      swap1\n      pop\n        /* \"#utility.yul\":4535:4606   */\n      tag_129\n        /* \"#utility.yul\":4603:4604   */\n      0x00\n        /* \"#utility.yul\":4592:4601   */\n      dup4\n        /* \"#utility.yul\":4588:4605   */\n      add\n        /* \"#utility.yul\":4579:4585   */\n      dup8\n        /* \"#utility.yul\":4535:4606   */\n      tag_86\n      jump\t// in\n    tag_129:\n        /* \"#utility.yul\":4616:4684   */\n      tag_130\n        /* \"#utility.yul\":4680:4682   */\n      0x20\n        /* \"#utility.yul\":4669:4678   */\n      dup4\n        /* \"#utility.yul\":4665:4683   */\n      add\n        /* \"#utility.yul\":4656:4662   */\n      dup7\n        /* \"#utility.yul\":4616:4684   */\n      tag_116\n      jump\t// in\n    tag_130:\n        /* \"#utility.yul\":4694:4766   */\n      tag_131\n        /* \"#utility.yul\":4762:4764   */\n      0x40\n        /* \"#utility.yul\":4751:4760   */\n      dup4\n        /* \"#utility.yul\":4747:4765   */\n      add\n        /* \"#utility.yul\":4738:4744   */\n      dup6\n        /* \"#utility.yul\":4694:4766   */\n      tag_86\n      jump\t// in\n    tag_131:\n        /* \"#utility.yul\":4776:4848   */\n      tag_132\n        /* \"#utility.yul\":4844:4846   */\n      0x60\n        /* \"#utility.yul\":4833:4842   */\n      dup4\n        /* \"#utility.yul\":4829:4847   */\n      add\n        /* \"#utility.yul\":4820:4826   */\n      dup5\n        /* \"#utility.yul\":4776:4848   */\n      tag_86\n      jump\t// in\n    tag_132:\n        /* \"#utility.yul\":4488:4855   */\n      swap6\n      swap5\n      pop\n      pop\n      pop\n      pop\n      pop\n      jump\t// out\n        /* \"#utility.yul\":4861:5083   */\n    tag_15:\n        /* \"#utility.yul\":4954:4958   */\n      0x00\n        /* \"#utility.yul\":4992:4994   */\n      0x20\n        /* \"#utility.yul\":4981:4990   */\n      dup3\n        /* \"#utility.yul\":4977:4995   */\n      add\n        /* \"#utility.yul\":4969:4995   */\n      swap1\n      pop\n        /* \"#utility.yul\":5005:5076   */\n      tag_134\n        /* \"#utility.yul\":5073:5074   */\n      0x00\n        /* \"#utility.yul\":5062:5071   */\n      dup4\n        /* \"#utility.yul\":5058:5075   */\n      add\n        /* \"#utility.yul\":5049:5055   */\n      dup5\n        /* \"#utility.yul\":5005:5076   */\n      tag_107\n      jump\t// in\n    tag_134:\n        /* \"#utility.yul\":4959:5083   */\n      swap3\n      swap2\n      pop\n      pop\n      jump\t// out\n        /* \"#utility.yul\":5089:5218   */\n    tag_62:\n        /* \"#utility.yul\":5123:5129   */\n      0x00\n        /* \"#utility.yul\":5150:5170   */\n      tag_136\n      tag_137\n      jump\t// in\n    tag_136:\n        /* \"#utility.yul\":5140:5170   */\n      swap1\n      pop\n        /* \"#utility.yul\":5179:5212   */\n      tag_138\n        /* \"#utility.yul\":5207:5211   */\n      dup3\n        /* \"#utility.yul\":5199:5205   */\n      dup3\n        /* \"#utility.yul\":5179:5212   */\n      tag_139\n      jump\t// in\n    tag_138:\n        /* \"#utility.yul\":5130:5218   */\n      swap2\n      swap1\n      pop\n      jump\t// out\n        /* \"#utility.yul\":5224:5299   */\n    tag_137:\n        /* \"#utility.yul\":5257:5263   */\n      0x00\n        /* \"#utility.yul\":5290:5292   */\n      0x40\n        /* \"#utility.yul\":5284:5293   */\n      mload\n        /* \"#utility.yul\":5274:5293   */\n      swap1\n      pop\n        /* \"#utility.yul\":5264:5299   */\n      swap1\n      jump\t// out\n        /* \"#utility.yul\":5305:5612   */\n    tag_61:\n        /* \"#utility.yul\":5366:5370   */\n      0x00\n        /* \"#utility.yul\":5456:5474   */\n      0xffffffffffffffff\n        /* \"#utility.yul\":5448:5454   */\n      dup3\n        /* \"#utility.yul\":5445:5475   */\n      gt\n        /* \"#utility.yul\":5442:5444   */\n      iszero\n      tag_142\n      jumpi\n        /* \"#utility.yul\":5478:5496   */\n      tag_143\n      tag_144\n      jump\t// in\n    tag_143:\n        /* \"#utility.yul\":5442:5444   */\n    tag_142:\n        /* \"#utility.yul\":5516:5545   */\n      tag_145\n        /* \"#utility.yul\":5538:5544   */\n      dup3\n        /* \"#utility.yul\":5516:5545   */\n      tag_146\n      jump\t// in\n    tag_145:\n        /* \"#utility.yul\":5508:5545   */\n      swap1\n      pop\n        /* \"#utility.yul\":5600:5604   */\n      0x20\n        /* \"#utility.yul\":5594:5598   */\n      dup2\n        /* \"#utility.yul\":5590:5605   */\n      add\n        /* \"#utility.yul\":5582:5605   */\n      swap1\n      pop\n        /* \"#utility.yul\":5371:5612   */\n      swap2\n      swap1\n      pop\n      jump\t// out\n        /* \"#utility.yul\":5618:5766   */\n    tag_104:\n        /* \"#utility.yul\":5720:5731   */\n      0x00\n        /* \"#utility.yul\":5757:5760   */\n      dup2\n        /* \"#utility.yul\":5742:5760   */\n      swap1\n      pop\n        /* \"#utility.yul\":5732:5766   */\n      swap3\n      swap2\n      pop\n      pop\n      jump\t// out\n        /* \"#utility.yul\":5772:5876   */\n    tag_85:\n        /* \"#utility.yul\":5817:5824   */\n      0x00\n        /* \"#utility.yul\":5846:5870   */\n      tag_149\n        /* \"#utility.yul\":5864:5869   */\n      dup3\n        /* \"#utility.yul\":5846:5870   */\n      tag_150\n      jump\t// in\n    tag_149:\n        /* \"#utility.yul\":5835:5870   */\n      swap1\n      pop\n        /* \"#utility.yul\":5825:5876   */\n      swap2\n      swap1\n      pop\n      jump\t// out\n        /* \"#utility.yul\":5882:5959   */\n    tag_89:\n        /* \"#utility.yul\":5919:5926   */\n      0x00\n        /* \"#utility.yul\":5948:5953   */\n      dup2\n        /* \"#utility.yul\":5937:5953   */\n      swap1\n      pop\n        /* \"#utility.yul\":5927:5959   */\n      swap2\n      swap1\n      pop\n      jump\t// out\n        /* \"#utility.yul\":5965:6091   */\n    tag_150:\n        /* \"#utility.yul\":6002:6009   */\n      0x00\n        /* \"#utility.yul\":6042:6084   */\n      0xffffffffffffffffffffffffffffffffffffffff\n        /* \"#utility.yul\":6035:6040   */\n      dup3\n        /* \"#utility.yul\":6031:6085   */\n      and\n        /* \"#utility.yul\":6020:6085   */\n      swap1\n      pop\n        /* \"#utility.yul\":6010:6091   */\n      swap2\n      swap1\n      pop\n      jump\t// out\n        /* \"#utility.yul\":6097:6174   */\n    tag_110:\n        /* \"#utility.yul\":6134:6141   */\n      0x00\n        /* \"#utility.yul\":6163:6168   */\n      dup2\n        /* \"#utility.yul\":6152:6168   */\n      swap1\n      pop\n        /* \"#utility.yul\":6142:6174   */\n      swap2\n      swap1\n      pop\n      jump\t// out\n        /* \"#utility.yul\":6180:6266   */\n    tag_119:\n        /* \"#utility.yul\":6215:6222   */\n      0x00\n        /* \"#utility.yul\":6255:6259   */\n      0xff\n        /* \"#utility.yul\":6248:6253   */\n      dup3\n        /* \"#utility.yul\":6244:6260   */\n      and\n        /* \"#utility.yul\":6233:6260   */\n      swap1\n      pop\n        /* \"#utility.yul\":6223:6266   */\n      swap2\n      swap1\n      pop\n      jump\t// out\n        /* \"#utility.yul\":6272:6454   */\n    tag_99:\n        /* \"#utility.yul\":6350:6359   */\n      0x00\n        /* \"#utility.yul\":6383:6448   */\n      tag_156\n        /* \"#utility.yul\":6442:6447   */\n      dup3\n        /* \"#utility.yul\":6383:6448   */\n      tag_157\n      jump\t// in\n    tag_156:\n        /* \"#utility.yul\":6370:6448   */\n      swap1\n      pop\n        /* \"#utility.yul\":6360:6454   */\n      swap2\n      swap1\n      pop\n      jump\t// out\n        /* \"#utility.yul\":6460:6601   */\n    tag_157:\n        /* \"#utility.yul\":6538:6547   */\n      0x00\n        /* \"#utility.yul\":6571:6595   */\n      tag_159\n        /* \"#utility.yul\":6589:6594   */\n      dup3\n        /* \"#utility.yul\":6571:6595   */\n      tag_150\n      jump\t// in\n    tag_159:\n        /* \"#utility.yul\":6558:6595   */\n      swap1\n      pop\n        /* \"#utility.yul\":6548:6601   */\n      swap2\n      swap1\n      pop\n      jump\t// out\n        /* \"#utility.yul\":6607:6761   */\n    tag_65:\n        /* \"#utility.yul\":6691:6697   */\n      dup3\n        /* \"#utility.yul\":6686:6689   */\n      dup2\n        /* \"#utility.yul\":6681:6684   */\n      dup4\n        /* \"#utility.yul\":6668:6698   */\n      calldatacopy\n        /* \"#utility.yul\":6753:6754   */\n      0x00\n        /* \"#utility.yul\":6744:6750   */\n      dup4\n        /* \"#utility.yul\":6739:6742   */\n      dup4\n        /* \"#utility.yul\":6735:6751   */\n      add\n        /* \"#utility.yul\":6728:6755   */\n      mstore\n        /* \"#utility.yul\":6658:6761   */\n      pop\n      pop\n      pop\n      jump\t// out\n        /* \"#utility.yul\":6767:7048   */\n    tag_139:\n        /* \"#utility.yul\":6850:6877   */\n      tag_162\n        /* \"#utility.yul\":6872:6876   */\n      dup3\n        /* \"#utility.yul\":6850:6877   */\n      tag_146\n      jump\t// in\n    tag_162:\n        /* \"#utility.yul\":6842:6848   */\n      dup2\n        /* \"#utility.yul\":6838:6878   */\n      add\n        /* \"#utility.yul\":6980:6986   */\n      dup2\n        /* \"#utility.yul\":6968:6978   */\n      dup2\n        /* \"#utility.yul\":6965:6987   */\n      lt\n        /* \"#utility.yul\":6944:6962   */\n      0xffffffffffffffff\n        /* \"#utility.yul\":6932:6942   */\n      dup3\n        /* \"#utility.yul\":6929:6963   */\n      gt\n        /* \"#utility.yul\":6926:6988   */\n      or\n        /* \"#utility.yul\":6923:6925   */\n      iszero\n      tag_163\n      jumpi\n        /* \"#utility.yul\":6991:7009   */\n      tag_164\n      tag_144\n      jump\t// in\n    tag_164:\n        /* \"#utility.yul\":6923:6925   */\n    tag_163:\n        /* \"#utility.yul\":7031:7041   */\n      dup1\n        /* \"#utility.yul\":7027:7029   */\n      0x40\n        /* \"#utility.yul\":7020:7042   */\n      mstore\n        /* \"#utility.yul\":6810:7048   */\n      pop\n      pop\n      pop\n      jump\t// out\n        /* \"#utility.yul\":7054:7154   */\n    tag_100:\n        /* \"#utility.yul\":7093:7100   */\n      0x00\n        /* \"#utility.yul\":7122:7148   */\n      tag_166\n        /* \"#utility.yul\":7142:7147   */\n      dup3\n        /* \"#utility.yul\":7122:7148   */\n      tag_167\n      jump\t// in\n    tag_166:\n        /* \"#utility.yul\":7111:7148   */\n      swap1\n      pop\n        /* \"#utility.yul\":7101:7154   */\n      swap2\n      swap1\n      pop\n      jump\t// out\n        /* \"#utility.yul\":7160:7239   */\n    tag_94:\n        /* \"#utility.yul\":7199:7206   */\n      0x00\n        /* \"#utility.yul\":7228:7233   */\n      dup2\n        /* \"#utility.yul\":7217:7233   */\n      swap1\n      pop\n        /* \"#utility.yul\":7207:7239   */\n      swap2\n      swap1\n      pop\n      jump\t// out\n        /* \"#utility.yul\":7245:7339   */\n    tag_167:\n        /* \"#utility.yul\":7284:7291   */\n      0x00\n        /* \"#utility.yul\":7313:7333   */\n      tag_170\n        /* \"#utility.yul\":7327:7332   */\n      dup3\n        /* \"#utility.yul\":7313:7333   */\n      tag_171\n      jump\t// in\n    tag_170:\n        /* \"#utility.yul\":7302:7333   */\n      swap1\n      pop\n        /* \"#utility.yul\":7292:7339   */\n      swap2\n      swap1\n      pop\n      jump\t// out\n        /* \"#utility.yul\":7345:7424   */\n    tag_115:\n        /* \"#utility.yul\":7384:7391   */\n      0x00\n        /* \"#utility.yul\":7413:7418   */\n      dup2\n        /* \"#utility.yul\":7402:7418   */\n      swap1\n      pop\n        /* \"#utility.yul\":7392:7424   */\n      swap2\n      swap1\n      pop\n      jump\t// out\n        /* \"#utility.yul\":7430:7610   */\n    tag_144:\n        /* \"#utility.yul\":7478:7555   */\n      0x4e487b7100000000000000000000000000000000000000000000000000000000\n        /* \"#utility.yul\":7475:7476   */\n      0x00\n        /* \"#utility.yul\":7468:7556   */\n      mstore\n        /* \"#utility.yul\":7575:7579   */\n      0x41\n        /* \"#utility.yul\":7572:7573   */\n      0x04\n        /* \"#utility.yul\":7565:7580   */\n      mstore\n        /* \"#utility.yul\":7599:7603   */\n      0x24\n        /* \"#utility.yul\":7596:7597   */\n      0x00\n        /* \"#utility.yul\":7589:7604   */\n      revert\n        /* \"#utility.yul\":7616:7718   */\n    tag_146:\n        /* \"#utility.yul\":7657:7663   */\n      0x00\n        /* \"#utility.yul\":7708:7710   */\n      0x1f\n        /* \"#utility.yul\":7704:7711   */\n      not\n        /* \"#utility.yul\":7699:7701   */\n      0x1f\n        /* \"#utility.yul\":7692:7697   */\n      dup4\n        /* \"#utility.yul\":7688:7702   */\n      add\n        /* \"#utility.yul\":7684:7712   */\n      and\n        /* \"#utility.yul\":7674:7712   */\n      swap1\n      pop\n        /* \"#utility.yul\":7664:7718   */\n      swap2\n      swap1\n      pop\n      jump\t// out\n        /* \"#utility.yul\":7724:7818   */\n    tag_171:\n        /* \"#utility.yul\":7757:7765   */\n      0x00\n        /* \"#utility.yul\":7805:7810   */\n      dup2\n        /* \"#utility.yul\":7801:7803   */\n      0x60\n        /* \"#utility.yul\":7797:7811   */\n      shl\n        /* \"#utility.yul\":7776:7811   */\n      swap1\n      pop\n        /* \"#utility.yul\":7766:7818   */\n      swap2\n      swap1\n      pop\n      jump\t// out\n        /* \"#utility.yul\":7824:8038   */\n    tag_106:\n        /* \"#utility.yul\":7964:8030   */\n      0x19457468657265756d205369676e6564204d6573736167653a0a333200000000\n        /* \"#utility.yul\":7960:7961   */\n      0x00\n        /* \"#utility.yul\":7952:7958   */\n      dup3\n        /* \"#utility.yul\":7948:7962   */\n      add\n        /* \"#utility.yul\":7941:8031   */\n      mstore\n        /* \"#utility.yul\":7930:8038   */\n      pop\n      jump\t// out\n        /* \"#utility.yul\":8044:8166   */\n    tag_73:\n        /* \"#utility.yul\":8117:8141   */\n      tag_178\n        /* \"#utility.yul\":8135:8140   */\n      dup2\n        /* \"#utility.yul\":8117:8141   */\n      tag_110\n      jump\t// in\n    tag_178:\n        /* \"#utility.yul\":8110:8115   */\n      dup2\n        /* \"#utility.yul\":8107:8142   */\n      eq\n        /* \"#utility.yul\":8097:8099   */\n      tag_179\n      jumpi\n        /* \"#utility.yul\":8156:8157   */\n      0x00\n        /* \"#utility.yul\":8153:8154   */\n      dup1\n        /* \"#utility.yul\":8146:8158   */\n      revert\n        /* \"#utility.yul\":8097:8099   */\n    tag_179:\n        /* \"#utility.yul\":8087:8166   */\n      pop\n      jump\t// out\n\n    auxdata: 0xa2646970667358221220c3655c8df4b89803278f9b25b8505cabcffd8d1ccc401ab5f5ca1f96942a94be64736f6c63430008040033\n}\n",
				"bytecode": {
					"linkReferences": {},
					"object": "608060405260405162000ac938038062000ac9833981810160405281019061002791906100eb565b336000806101000a81548173ffffffffffffffffffffffffffffffffffffffff021916908373ffffffffffffffffffffffffffffffffffffffff16021790555081600160006101000a81548173ffffffffffffffffffffffffffffffffffffffff021916908373ffffffffffffffffffffffffffffffffffffffff16021790555080426100b49190610127565b6002819055505050610216565b6000815190506100d0816101e8565b92915050565b6000815190506100e5816101ff565b92915050565b600080604083850312156100fe57600080fd5b600061010c858286016100c1565b925050602061011d858286016100d6565b9150509250929050565b6000610132826101af565b915061013d836101af565b9250827fffffffffffffffffffffffffffffffffffffffffffffffffffffffffffffffff03821115610172576101716101b9565b5b828201905092915050565b60006101888261018f565b9050919050565b600073ffffffffffffffffffffffffffffffffffffffff82169050919050565b6000819050919050565b7f4e487b7100000000000000000000000000000000000000000000000000000000600052601160045260246000fd5b6101f18161017d565b81146101fc57600080fd5b50565b610208816101af565b811461021357600080fd5b50565b6108a380620002266000396000f3fe608060405234801561001057600080fd5b50600436106100575760003560e01c8063415ffba71461005c5780634665096d1461007857806366d003ac1461009657806367e404ce146100b45780639714378c146100d2575b600080fd5b610076600480360381019061007191906104cb565b6100ee565b005b6100806101fd565b60405161008d9190610675565b60405180910390f35b61009e610203565b6040516100ab9190610615565b60405180910390f35b6100bc610229565b6040516100c99190610615565b60405180910390f35b6100ec60048036038101906100e791906104a2565b61024d565b005b600160009054906101000a900473ffffffffffffffffffffffffffffffffffffffff1673ffffffffffffffffffffffffffffffffffffffff163373ffffffffffffffffffffffffffffffffffffffff161461014857600080fd5b61015282826102bd565b61015b57600080fd5b600160009054906101000a900473ffffffffffffffffffffffffffffffffffffffff1673ffffffffffffffffffffffffffffffffffffffff166108fc839081150290604051600060405180830381858888f193505050501580156101c3573d6000803e3d6000fd5b5060008054906101000a900473ffffffffffffffffffffffffffffffffffffffff1673ffffffffffffffffffffffffffffffffffffffff16ff5b60025481565b600160009054906101000a900473ffffffffffffffffffffffffffffffffffffffff1681565b60008054906101000a900473ffffffffffffffffffffffffffffffffffffffff1681565b60008054906101000a900473ffffffffffffffffffffffffffffffffffffffff1673ffffffffffffffffffffffffffffffffffffffff163373ffffffffffffffffffffffffffffffffffffffff16146102a557600080fd5b60025481116102b357600080fd5b8060028190555050565b6000806102f130856040516020016102d69291906105c3565b60405160208183030381529060405280519060200120610354565b905060008054906101000a900473ffffffffffffffffffffffffffffffffffffffff1673ffffffffffffffffffffffffffffffffffffffff166103348285610384565b73ffffffffffffffffffffffffffffffffffffffff161491505092915050565b60008160405160200161036791906105ef565b604051602081830303815290604052805190602001209050919050565b600080600080610393856103f3565b925092509250600186848484604051600081526020016040526040516103bc9493929190610630565b6020604051602081039080840390855afa1580156103de573d6000803e3d6000fd5b50505060206040510351935050505092915050565b6000806000604184511461040657600080fd5b6020840151915060408401519050606084015160001a92509193909250565b6000610438610433846106b5565b610690565b90508281526020810184848401111561045057600080fd5b61045b848285610768565b509392505050565b600082601f83011261047457600080fd5b8135610484848260208601610425565b91505092915050565b60008135905061049c81610856565b92915050565b6000602082840312156104b457600080fd5b60006104c28482850161048d565b91505092915050565b600080604083850312156104de57600080fd5b60006104ec8582860161048d565b925050602083013567ffffffffffffffff81111561050957600080fd5b61051585828601610463565b9150509250929050565b610528816106f1565b82525050565b61053781610703565b82525050565b61054e61054982610703565b6107ba565b82525050565b61056561056082610744565b6107a8565b82525050565b6000610578601c836106e6565b91506105838261082d565b601c82019050919050565b6105978161072d565b82525050565b6105ae6105a98261072d565b6107d6565b82525050565b6105bd81610737565b82525050565b60006105cf8285610554565b6014820191506105df828461059d565b6020820191508190509392505050565b60006105fa8261056b565b9150610606828461053d565b60208201915081905092915050565b600060208201905061062a600083018461051f565b92915050565b6000608082019050610645600083018761052e565b61065260208301866105b4565b61065f604083018561052e565b61066c606083018461052e565b95945050505050565b600060208201905061068a600083018461058e565b92915050565b600061069a6106ab565b90506106a68282610777565b919050565b6000604051905090565b600067ffffffffffffffff8211156106d0576106cf6107e0565b5b6106d98261080f565b9050602081019050919050565b600081905092915050565b60006106fc8261070d565b9050919050565b6000819050919050565b600073ffffffffffffffffffffffffffffffffffffffff82169050919050565b6000819050919050565b600060ff82169050919050565b600061074f82610756565b9050919050565b60006107618261070d565b9050919050565b82818337600083830152505050565b6107808261080f565b810181811067ffffffffffffffff8211171561079f5761079e6107e0565b5b80604052505050565b60006107b3826107c4565b9050919050565b6000819050919050565b60006107cf82610820565b9050919050565b6000819050919050565b7f4e487b7100000000000000000000000000000000000000000000000000000000600052604160045260246000fd5b6000601f19601f8301169050919050565b60008160601b9050919050565b7f19457468657265756d205369676e6564204d6573736167653a0a333200000000600082015250565b61085f8161072d565b811461086a57600080fd5b5056fea2646970667358221220c3655c8df4b89803278f9b25b8505cabcffd8d1ccc401ab5f5ca1f96942a94be64736f6c63430008040033",
					"opcodes": "PUSH1 0x80 PUSH1 0x40 MSTORE PUSH1 0x40 MLOAD PUSH3 0xAC9 CODESIZE SUB DUP1 PUSH3 0xAC9 DUP4 CODECOPY DUP2 DUP2 ADD PUSH1 0x40 MSTORE DUP2 ADD SWAP1 PUSH2 0x27 SWAP2 SWAP1 PUSH2 0xEB JUMP JUMPDEST CALLER PUSH1 0x0 DUP1 PUSH2 0x100 EXP DUP2 SLOAD DUP2 PUSH20 0xFFFFFFFFFFFFFFFFFFFFFFFFFFFFFFFFFFFFFFFF MUL NOT AND SWAP1 DUP4 PUSH20 0xFFFFFFFFFFFFFFFFFFFFFFFFFFFFFFFFFFFFFFFF AND MUL OR SWAP1 SSTORE POP DUP2 PUSH1 0x1 PUSH1 0x0 PUSH2 0x100 EXP DUP2 SLOAD DUP2 PUSH20 0xFFFFFFFFFFFFFFFFFFFFFFFFFFFFFFFFFFFFFFFF MUL NOT AND SWAP1 DUP4 PUSH20 0xFFFFFFFFFFFFFFFFFFFFFFFFFFFFFFFFFFFFFFFF AND MUL OR SWAP1 SSTORE POP DUP1 TIMESTAMP PUSH2 0xB4 SWAP2 SWAP1 PUSH2 0x127 JUMP JUMPDEST PUSH1 0x2 DUP2 SWAP1 SSTORE POP POP POP PUSH2 0x216 JUMP JUMPDEST PUSH1 0x0 DUP2 MLOAD SWAP1 POP PUSH2 0xD0 DUP2 PUSH2 0x1E8 JUMP JUMPDEST SWAP3 SWAP2 POP POP JUMP JUMPDEST PUSH1 0x0 DUP2 MLOAD SWAP1 POP PUSH2 0xE5 DUP2 PUSH2 0x1FF JUMP JUMPDEST SWAP3 SWAP2 POP POP JUMP JUMPDEST PUSH1 0x0 DUP1 PUSH1 0x40 DUP4 DUP6 SUB SLT ISZERO PUSH2 0xFE JUMPI PUSH1 0x0 DUP1 REVERT JUMPDEST PUSH1 0x0 PUSH2 0x10C DUP6 DUP3 DUP7 ADD PUSH2 0xC1 JUMP JUMPDEST SWAP3 POP POP PUSH1 0x20 PUSH2 0x11D DUP6 DUP3 DUP7 ADD PUSH2 0xD6 JUMP JUMPDEST SWAP2 POP POP SWAP3 POP SWAP3 SWAP1 POP JUMP JUMPDEST PUSH1 0x0 PUSH2 0x132 DUP3 PUSH2 0x1AF JUMP JUMPDEST SWAP2 POP PUSH2 0x13D DUP4 PUSH2 0x1AF JUMP JUMPDEST SWAP3 POP DUP3 PUSH32 0xFFFFFFFFFFFFFFFFFFFFFFFFFFFFFFFFFFFFFFFFFFFFFFFFFFFFFFFFFFFFFFFF SUB DUP3 GT ISZERO PUSH2 0x172 JUMPI PUSH2 0x171 PUSH2 0x1B9 JUMP JUMPDEST JUMPDEST DUP3 DUP3 ADD SWAP1 POP SWAP3 SWAP2 POP POP JUMP JUMPDEST PUSH1 0x0 PUSH2 0x188 DUP3 PUSH2 0x18F JUMP JUMPDEST SWAP1 POP SWAP2 SWAP1 POP JUMP JUMPDEST PUSH1 0x0 PUSH20 0xFFFFFFFFFFFFFFFFFFFFFFFFFFFFFFFFFFFFFFFF DUP3 AND SWAP1 POP SWAP2 SWAP1 POP JUMP JUMPDEST PUSH1 0x0 DUP2 SWAP1 POP SWAP2 SWAP1 POP JUMP JUMPDEST PUSH32 0x4E487B7100000000000000000000000000000000000000000000000000000000 PUSH1 0x0 MSTORE PUSH1 0x11 PUSH1 0x4 MSTORE PUSH1 0x24 PUSH1 0x0 REVERT JUMPDEST PUSH2 0x1F1 DUP2 PUSH2 0x17D JUMP JUMPDEST DUP2 EQ PUSH2 0x1FC JUMPI PUSH1 0x0 DUP1 REVERT JUMPDEST POP JUMP JUMPDEST PUSH2 0x208 DUP2 PUSH2 0x1AF JUMP JUMPDEST DUP2 EQ PUSH2 0x213 JUMPI PUSH1 0x0 DUP1 REVERT JUMPDEST POP JUMP JUMPDEST PUSH2 0x8A3 DUP1 PUSH3 0x226 PUSH1 0x0 CODECOPY PUSH1 0x0 RETURN INVALID PUSH1 0x80 PUSH1 0x40 MSTORE CALLVALUE DUP1 ISZERO PUSH2 0x10 JUMPI PUSH1 0x0 DUP1 REVERT JUMPDEST POP PUSH1 0x4 CALLDATASIZE LT PUSH2 0x57 JUMPI PUSH1 0x0 CALLDATALOAD PUSH1 0xE0 SHR DUP1 PUSH4 0x415FFBA7 EQ PUSH2 0x5C JUMPI DUP1 PUSH4 0x4665096D EQ PUSH2 0x78 JUMPI DUP1 PUSH4 0x66D003AC EQ PUSH2 0x96 JUMPI DUP1 PUSH4 0x67E404CE EQ PUSH2 0xB4 JUMPI DUP1 PUSH4 0x9714378C EQ PUSH2 0xD2 JUMPI JUMPDEST PUSH1 0x0 DUP1 REVERT JUMPDEST PUSH2 0x76 PUSH1 0x4 DUP1 CALLDATASIZE SUB DUP2 ADD SWAP1 PUSH2 0x71 SWAP2 SWAP1 PUSH2 0x4CB JUMP JUMPDEST PUSH2 0xEE JUMP JUMPDEST STOP JUMPDEST PUSH2 0x80 PUSH2 0x1FD JUMP JUMPDEST PUSH1 0x40 MLOAD PUSH2 0x8D SWAP2 SWAP1 PUSH2 0x675 JUMP JUMPDEST PUSH1 0x40 MLOAD DUP1 SWAP2 SUB SWAP1 RETURN JUMPDEST PUSH2 0x9E PUSH2 0x203 JUMP JUMPDEST PUSH1 0x40 MLOAD PUSH2 0xAB SWAP2 SWAP1 PUSH2 0x615 JUMP JUMPDEST PUSH1 0x40 MLOAD DUP1 SWAP2 SUB SWAP1 RETURN JUMPDEST PUSH2 0xBC PUSH2 0x229 JUMP JUMPDEST PUSH1 0x40 MLOAD PUSH2 0xC9 SWAP2 SWAP1 PUSH2 0x615 JUMP JUMPDEST PUSH1 0x40 MLOAD DUP1 SWAP2 SUB SWAP1 RETURN JUMPDEST PUSH2 0xEC PUSH1 0x4 DUP1 CALLDATASIZE SUB DUP2 ADD SWAP1 PUSH2 0xE7 SWAP2 SWAP1 PUSH2 0x4A2 JUMP JUMPDEST PUSH2 0x24D JUMP JUMPDEST STOP JUMPDEST PUSH1 0x1 PUSH1 0x0 SWAP1 SLOAD SWAP1 PUSH2 0x100 EXP SWAP1 DIV PUSH20 0xFFFFFFFFFFFFFFFFFFFFFFFFFFFFFFFFFFFFFFFF AND PUSH20 0xFFFFFFFFFFFFFFFFFFFFFFFFFFFFFFFFFFFFFFFF AND CALLER PUSH20 0xFFFFFFFFFFFFFFFFFFFFFFFFFFFFFFFFFFFFFFFF AND EQ PUSH2 0x148 JUMPI PUSH1 0x0 DUP1 REVERT JUMPDEST PUSH2 0x152 DUP3 DUP3 PUSH2 0x2BD JUMP JUMPDEST PUSH2 0x15B JUMPI PUSH1 0x0 DUP1 REVERT JUMPDEST PUSH1 0x1 PUSH1 0x0 SWAP1 SLOAD SWAP1 PUSH2 0x100 EXP SWAP1 DIV PUSH20 0xFFFFFFFFFFFFFFFFFFFFFFFFFFFFFFFFFFFFFFFF AND PUSH20 0xFFFFFFFFFFFFFFFFFFFFFFFFFFFFFFFFFFFFFFFF AND PUSH2 0x8FC DUP4 SWAP1 DUP2 ISZERO MUL SWAP1 PUSH1 0x40 MLOAD PUSH1 0x0 PUSH1 0x40 MLOAD DUP1 DUP4 SUB DUP2 DUP6 DUP9 DUP9 CALL SWAP4 POP POP POP POP ISZERO DUP1 ISZERO PUSH2 0x1C3 JUMPI RETURNDATASIZE PUSH1 0x0 DUP1 RETURNDATACOPY RETURNDATASIZE PUSH1 0x0 REVERT JUMPDEST POP PUSH1 0x0 DUP1 SLOAD SWAP1 PUSH2 0x100 EXP SWAP1 DIV PUSH20 0xFFFFFFFFFFFFFFFFFFFFFFFFFFFFFFFFFFFFFFFF AND PUSH20 0xFFFFFFFFFFFFFFFFFFFFFFFFFFFFFFFFFFFFFFFF AND SELFDESTRUCT JUMPDEST PUSH1 0x2 SLOAD DUP2 JUMP JUMPDEST PUSH1 0x1 PUSH1 0x0 SWAP1 SLOAD SWAP1 PUSH2 0x100 EXP SWAP1 DIV PUSH20 0xFFFFFFFFFFFFFFFFFFFFFFFFFFFFFFFFFFFFFFFF AND DUP2 JUMP JUMPDEST PUSH1 0x0 DUP1 SLOAD SWAP1 PUSH2 0x100 EXP SWAP1 DIV PUSH20 0xFFFFFFFFFFFFFFFFFFFFFFFFFFFFFFFFFFFFFFFF AND DUP2 JUMP JUMPDEST PUSH1 0x0 DUP1 SLOAD SWAP1 PUSH2 0x100 EXP SWAP1 DIV PUSH20 0xFFFFFFFFFFFFFFFFFFFFFFFFFFFFFFFFFFFFFFFF AND PUSH20 0xFFFFFFFFFFFFFFFFFFFFFFFFFFFFFFFFFFFFFFFF AND CALLER PUSH20 0xFFFFFFFFFFFFFFFFFFFFFFFFFFFFFFFFFFFFFFFF AND EQ PUSH2 0x2A5 JUMPI PUSH1 0x0 DUP1 REVERT JUMPDEST PUSH1 0x2 SLOAD DUP2 GT PUSH2 0x2B3 JUMPI PUSH1 0x0 DUP1 REVERT JUMPDEST DUP1 PUSH1 0x2 DUP2 SWAP1 SSTORE POP POP JUMP JUMPDEST PUSH1 0x0 DUP1 PUSH2 0x2F1 ADDRESS DUP6 PUSH1 0x40 MLOAD PUSH1 0x20 ADD PUSH2 0x2D6 SWAP3 SWAP2 SWAP1 PUSH2 0x5C3 JUMP JUMPDEST PUSH1 0x40 MLOAD PUSH1 0x20 DUP2 DUP4 SUB SUB DUP2 MSTORE SWAP1 PUSH1 0x40 MSTORE DUP1 MLOAD SWAP1 PUSH1 0x20 ADD KECCAK256 PUSH2 0x354 JUMP JUMPDEST SWAP1 POP PUSH1 0x0 DUP1 SLOAD SWAP1 PUSH2 0x100 EXP SWAP1 DIV PUSH20 0xFFFFFFFFFFFFFFFFFFFFFFFFFFFFFFFFFFFFFFFF AND PUSH20 0xFFFFFFFFFFFFFFFFFFFFFFFFFFFFFFFFFFFFFFFF AND PUSH2 0x334 DUP3 DUP6 PUSH2 0x384 JUMP JUMPDEST PUSH20 0xFFFFFFFFFFFFFFFFFFFFFFFFFFFFFFFFFFFFFFFF AND EQ SWAP2 POP POP SWAP3 SWAP2 POP POP JUMP JUMPDEST PUSH1 0x0 DUP2 PUSH1 0x40 MLOAD PUSH1 0x20 ADD PUSH2 0x367 SWAP2 SWAP1 PUSH2 0x5EF JUMP JUMPDEST PUSH1 0x40 MLOAD PUSH1 0x20 DUP2 DUP4 SUB SUB DUP2 MSTORE SWAP1 PUSH1 0x40 MSTORE DUP1 MLOAD SWAP1 PUSH1 0x20 ADD KECCAK256 SWAP1 POP SWAP2 SWAP1 POP JUMP JUMPDEST PUSH1 0x0 DUP1 PUSH1 0x0 DUP1 PUSH2 0x393 DUP6 PUSH2 0x3F3 JUMP JUMPDEST SWAP3 POP SWAP3 POP SWAP3 POP PUSH1 0x1 DUP7 DUP5 DUP5 DUP5 PUSH1 0x40 MLOAD PUSH1 0x0 DUP2 MSTORE PUSH1 0x20 ADD PUSH1 0x40 MSTORE PUSH1 0x40 MLOAD PUSH2 0x3BC SWAP5 SWAP4 SWAP3 SWAP2 SWAP1 PUSH2 0x630 JUMP JUMPDEST PUSH1 0x20 PUSH1 0x40 MLOAD PUSH1 0x20 DUP2 SUB SWAP1 DUP1 DUP5 SUB SWAP1 DUP6 GAS STATICCALL ISZERO DUP1 ISZERO PUSH2 0x3DE JUMPI RETURNDATASIZE PUSH1 0x0 DUP1 RETURNDATACOPY RETURNDATASIZE PUSH1 0x0 REVERT JUMPDEST POP POP POP PUSH1 0x20 PUSH1 0x40 MLOAD SUB MLOAD SWAP4 POP POP POP POP SWAP3 SWAP2 POP POP JUMP JUMPDEST PUSH1 0x0 DUP1 PUSH1 0x0 PUSH1 0x41 DUP5 MLOAD EQ PUSH2 0x406 JUMPI PUSH1 0x0 DUP1 REVERT JUMPDEST PUSH1 0x20 DUP5 ADD MLOAD SWAP2 POP PUSH1 0x40 DUP5 ADD MLOAD SWAP1 POP PUSH1 0x60 DUP5 ADD MLOAD PUSH1 0x0 BYTE SWAP3 POP SWAP2 SWAP4 SWAP1 SWAP3 POP JUMP JUMPDEST PUSH1 0x0 PUSH2 0x438 PUSH2 0x433 DUP5 PUSH2 0x6B5 JUMP JUMPDEST PUSH2 0x690 JUMP JUMPDEST SWAP1 POP DUP3 DUP2 MSTORE PUSH1 0x20 DUP2 ADD DUP5 DUP5 DUP5 ADD GT ISZERO PUSH2 0x450 JUMPI PUSH1 0x0 DUP1 REVERT JUMPDEST PUSH2 0x45B DUP5 DUP3 DUP6 PUSH2 0x768 JUMP JUMPDEST POP SWAP4 SWAP3 POP POP POP JUMP JUMPDEST PUSH1 0x0 DUP3 PUSH1 0x1F DUP4 ADD SLT PUSH2 0x474 JUMPI PUSH1 0x0 DUP1 REVERT JUMPDEST DUP2 CALLDATALOAD PUSH2 0x484 DUP5 DUP3 PUSH1 0x20 DUP7 ADD PUSH2 0x425 JUMP JUMPDEST SWAP2 POP POP SWAP3 SWAP2 POP POP JUMP JUMPDEST PUSH1 0x0 DUP2 CALLDATALOAD SWAP1 POP PUSH2 0x49C DUP2 PUSH2 0x856 JUMP JUMPDEST SWAP3 SWAP2 POP POP JUMP JUMPDEST PUSH1 0x0 PUSH1 0x20 DUP3 DUP5 SUB SLT ISZERO PUSH2 0x4B4 JUMPI PUSH1 0x0 DUP1 REVERT JUMPDEST PUSH1 0x0 PUSH2 0x4C2 DUP5 DUP3 DUP6 ADD PUSH2 0x48D JUMP JUMPDEST SWAP2 POP POP SWAP3 SWAP2 POP POP JUMP JUMPDEST PUSH1 0x0 DUP1 PUSH1 0x40 DUP4 DUP6 SUB SLT ISZERO PUSH2 0x4DE JUMPI PUSH1 0x0 DUP1 REVERT JUMPDEST PUSH1 0x0 PUSH2 0x4EC DUP6 DUP3 DUP7 ADD PUSH2 0x48D JUMP JUMPDEST SWAP3 POP POP PUSH1 0x20 DUP4 ADD CALLDATALOAD PUSH8 0xFFFFFFFFFFFFFFFF DUP2 GT ISZERO PUSH2 0x509 JUMPI PUSH1 0x0 DUP1 REVERT JUMPDEST PUSH2 0x515 DUP6 DUP3 DUP7 ADD PUSH2 0x463 JUMP JUMPDEST SWAP2 POP POP SWAP3 POP SWAP3 SWAP1 POP JUMP JUMPDEST PUSH2 0x528 DUP2 PUSH2 0x6F1 JUMP JUMPDEST DUP3 MSTORE POP POP JUMP JUMPDEST PUSH2 0x537 DUP2 PUSH2 0x703 JUMP JUMPDEST DUP3 MSTORE POP POP JUMP JUMPDEST PUSH2 0x54E PUSH2 0x549 DUP3 PUSH2 0x703 JUMP JUMPDEST PUSH2 0x7BA JUMP JUMPDEST DUP3 MSTORE POP POP JUMP JUMPDEST PUSH2 0x565 PUSH2 0x560 DUP3 PUSH2 0x744 JUMP JUMPDEST PUSH2 0x7A8 JUMP JUMPDEST DUP3 MSTORE POP POP JUMP JUMPDEST PUSH1 0x0 PUSH2 0x578 PUSH1 0x1C DUP4 PUSH2 0x6E6 JUMP JUMPDEST SWAP2 POP PUSH2 0x583 DUP3 PUSH2 0x82D JUMP JUMPDEST PUSH1 0x1C DUP3 ADD SWAP1 POP SWAP2 SWAP1 POP JUMP JUMPDEST PUSH2 0x597 DUP2 PUSH2 0x72D JUMP JUMPDEST DUP3 MSTORE POP POP JUMP JUMPDEST PUSH2 0x5AE PUSH2 0x5A9 DUP3 PUSH2 0x72D JUMP JUMPDEST PUSH2 0x7D6 JUMP JUMPDEST DUP3 MSTORE POP POP JUMP JUMPDEST PUSH2 0x5BD DUP2 PUSH2 0x737 JUMP JUMPDEST DUP3 MSTORE POP POP JUMP JUMPDEST PUSH1 0x0 PUSH2 0x5CF DUP3 DUP6 PUSH2 0x554 JUMP JUMPDEST PUSH1 0x14 DUP3 ADD SWAP2 POP PUSH2 0x5DF DUP3 DUP5 PUSH2 0x59D JUMP JUMPDEST PUSH1 0x20 DUP3 ADD SWAP2 POP DUP2 SWAP1 POP SWAP4 SWAP3 POP POP POP JUMP JUMPDEST PUSH1 0x0 PUSH2 0x5FA DUP3 PUSH2 0x56B JUMP JUMPDEST SWAP2 POP PUSH2 0x606 DUP3 DUP5 PUSH2 0x53D JUMP JUMPDEST PUSH1 0x20 DUP3 ADD SWAP2 POP DUP2 SWAP1 POP SWAP3 SWAP2 POP POP JUMP JUMPDEST PUSH1 0x0 PUSH1 0x20 DUP3 ADD SWAP1 POP PUSH2 0x62A PUSH1 0x0 DUP4 ADD DUP5 PUSH2 0x51F JUMP JUMPDEST SWAP3 SWAP2 POP POP JUMP JUMPDEST PUSH1 0x0 PUSH1 0x80 DUP3 ADD SWAP1 POP PUSH2 0x645 PUSH1 0x0 DUP4 ADD DUP8 PUSH2 0x52E JUMP JUMPDEST PUSH2 0x652 PUSH1 0x20 DUP4 ADD DUP7 PUSH2 0x5B4 JUMP JUMPDEST PUSH2 0x65F PUSH1 0x40 DUP4 ADD DUP6 PUSH2 0x52E JUMP JUMPDEST PUSH2 0x66C PUSH1 0x60 DUP4 ADD DUP5 PUSH2 0x52E JUMP JUMPDEST SWAP6 SWAP5 POP POP POP POP POP JUMP JUMPDEST PUSH1 0x0 PUSH1 0x20 DUP3 ADD SWAP1 POP PUSH2 0x68A PUSH1 0x0 DUP4 ADD DUP5 PUSH2 0x58E JUMP JUMPDEST SWAP3 SWAP2 POP POP JUMP JUMPDEST PUSH1 0x0 PUSH2 0x69A PUSH2 0x6AB JUMP JUMPDEST SWAP1 POP PUSH2 0x6A6 DUP3 DUP3 PUSH2 0x777 JUMP JUMPDEST SWAP2 SWAP1 POP JUMP JUMPDEST PUSH1 0x0 PUSH1 0x40 MLOAD SWAP1 POP SWAP1 JUMP JUMPDEST PUSH1 0x0 PUSH8 0xFFFFFFFFFFFFFFFF DUP3 GT ISZERO PUSH2 0x6D0 JUMPI PUSH2 0x6CF PUSH2 0x7E0 JUMP JUMPDEST JUMPDEST PUSH2 0x6D9 DUP3 PUSH2 0x80F JUMP JUMPDEST SWAP1 POP PUSH1 0x20 DUP2 ADD SWAP1 POP SWAP2 SWAP1 POP JUMP JUMPDEST PUSH1 0x0 DUP2 SWAP1 POP SWAP3 SWAP2 POP POP JUMP JUMPDEST PUSH1 0x0 PUSH2 0x6FC DUP3 PUSH2 0x70D JUMP JUMPDEST SWAP1 POP SWAP2 SWAP1 POP JUMP JUMPDEST PUSH1 0x0 DUP2 SWAP1 POP SWAP2 SWAP1 POP JUMP JUMPDEST PUSH1 0x0 PUSH20 0xFFFFFFFFFFFFFFFFFFFFFFFFFFFFFFFFFFFFFFFF DUP3 AND SWAP1 POP SWAP2 SWAP1 POP JUMP JUMPDEST PUSH1 0x0 DUP2 SWAP1 POP SWAP2 SWAP1 POP JUMP JUMPDEST PUSH1 0x0 PUSH1 0xFF DUP3 AND SWAP1 POP SWAP2 SWAP1 POP JUMP JUMPDEST PUSH1 0x0 PUSH2 0x74F DUP3 PUSH2 0x756 JUMP JUMPDEST SWAP1 POP SWAP2 SWAP1 POP JUMP JUMPDEST PUSH1 0x0 PUSH2 0x761 DUP3 PUSH2 0x70D JUMP JUMPDEST SWAP1 POP SWAP2 SWAP1 POP JUMP JUMPDEST DUP3 DUP2 DUP4 CALLDATACOPY PUSH1 0x0 DUP4 DUP4 ADD MSTORE POP POP POP JUMP JUMPDEST PUSH2 0x780 DUP3 PUSH2 0x80F JUMP JUMPDEST DUP2 ADD DUP2 DUP2 LT PUSH8 0xFFFFFFFFFFFFFFFF DUP3 GT OR ISZERO PUSH2 0x79F JUMPI PUSH2 0x79E PUSH2 0x7E0 JUMP JUMPDEST JUMPDEST DUP1 PUSH1 0x40 MSTORE POP POP POP JUMP JUMPDEST PUSH1 0x0 PUSH2 0x7B3 DUP3 PUSH2 0x7C4 JUMP JUMPDEST SWAP1 POP SWAP2 SWAP1 POP JUMP JUMPDEST PUSH1 0x0 DUP2 SWAP1 POP SWAP2 SWAP1 POP JUMP JUMPDEST PUSH1 0x0 PUSH2 0x7CF DUP3 PUSH2 0x820 JUMP JUMPDEST SWAP1 POP SWAP2 SWAP1 POP JUMP JUMPDEST PUSH1 0x0 DUP2 SWAP1 POP SWAP2 SWAP1 POP JUMP JUMPDEST PUSH32 0x4E487B7100000000000000000000000000000000000000000000000000000000 PUSH1 0x0 MSTORE PUSH1 0x41 PUSH1 0x4 MSTORE PUSH1 0x24 PUSH1 0x0 REVERT JUMPDEST PUSH1 0x0 PUSH1 0x1F NOT PUSH1 0x1F DUP4 ADD AND SWAP1 POP SWAP2 SWAP1 POP JUMP JUMPDEST PUSH1 0x0 DUP2 PUSH1 0x60 SHL SWAP1 POP SWAP2 SWAP1 POP JUMP JUMPDEST PUSH32 0x19457468657265756D205369676E6564204D6573736167653A0A333200000000 PUSH1 0x0 DUP3 ADD MSTORE POP JUMP JUMPDEST PUSH2 0x85F DUP2 PUSH2 0x72D JUMP JUMPDEST DUP2 EQ PUSH2 0x86A JUMPI PUSH1 0x0 DUP1 REVERT JUMPDEST POP JUMP INVALID LOG2 PUSH5 0x6970667358 0x22 SLT KECCAK256 0xC3 PUSH6 0x5C8DF4B89803 0x27 DUP16 SWAP12 0x25 0xB8 POP 0x5C 0xAB 0xCF REVERT DUP14 SHR 0xCC BLOCKHASH BYTE 0xB5 CREATE2 0xCA 0x1F SWAP7 SWAP5 0x2A SWAP5 0xBE PUSH5 0x736F6C6343 STOP ADDMOD DIV STOP CALLER "
				},
				"gasEstimates": {
					"creation": {
						"codeDepositCost": "442200",
						"executionCost": "infinite",
						"totalCost": "infinite"
					},
					"external": {
						"close(uint256,bytes)": "infinite",
						"expiration()": "1129",
						"extend(uint256)": "22176",
						"recipient()": "1236",
						"sender()": "1255"
					},
					"internal": {
						"isValidSignature(uint256,bytes memory)": "infinite",
						"prefixed(bytes32)": "infinite",
						"recoverSigner(bytes32,bytes memory)": "infinite",
						"splitSignature(bytes memory)": "infinite"
					}
				},
				"methodIdentifiers": {
					"close(uint256,bytes)": "415ffba7",
					"expiration()": "4665096d",
					"extend(uint256)": "9714378c",
					"recipient()": "66d003ac",
					"sender()": "67e404ce"
				}
			},
			"storageLayout": {
				"storage": [
					{
						"astId": 3,
						"contract": "solidity-skills/simplepaymentchannel.sol:SimplePaymentChannel",
						"label": "sender",
						"offset": 0,
						"slot": "0",
						"type": "t_address_payable"
					},
					{
						"astId": 5,
						"contract": "solidity-skills/simplepaymentchannel.sol:SimplePaymentChannel",
						"label": "recipient",
						"offset": 0,
						"slot": "1",
						"type": "t_address_payable"
					},
					{
						"astId": 7,
						"contract": "solidity-skills/simplepaymentchannel.sol:SimplePaymentChannel",
						"label": "expiration",
						"offset": 0,
						"slot": "2",
						"type": "t_uint256"
					}
				],
				"types": {
					"t_address_payable": {
						"encoding": "inplace",
						"label": "address payable",
						"numberOfBytes": "20"
					},
					"t_uint256": {
						"encoding": "inplace",
						"label": "uint256",
						"numberOfBytes": "32"
					}
				}
			},
			"userdoc": {
				"kind": "user",
				"methods": {},
				"version": 1
			}
		}
	}
}