{
	"solidity-skills/signpayment.sol": {
		"ReceiverPays": {
			"abi": [
				{
					"inputs": [],
					"stateMutability": "payable",
					"type": "constructor"
				},
				{
					"inputs": [
						{
							"internalType": "uint256",
							"name": "amount",
							"type": "uint256"
						},
						{
							"internalType": "uint256",
							"name": "nonce",
							"type": "uint256"
						},
						{
							"internalType": "bytes",
							"name": "signature",
							"type": "bytes"
						}
					],
					"name": "claimPayment",
					"outputs": [],
					"stateMutability": "nonpayable",
					"type": "function"
				},
				{
					"inputs": [],
					"name": "kill",
					"outputs": [],
					"stateMutability": "nonpayable",
					"type": "function"
				}
			],
			"devdoc": {
				"kind": "dev",
				"methods": {},
				"version": 1
			},
			"evm": {
				"assembly": "    /* \"solidity-skills/signpayment.sol\":70:1445  contract ReceiverPays {... */\n  mstore(0x40, 0x80)\n    /* \"solidity-skills/signpayment.sol\":115:125  msg.sender */\n  caller\n    /* \"solidity-skills/signpayment.sol\":99:125  address owner = msg.sender */\n  0x00\n  dup1\n  0x0100\n  exp\n  dup2\n  sload\n  dup2\n  0xffffffffffffffffffffffffffffffffffffffff\n  mul\n  not\n  and\n  swap1\n  dup4\n  0xffffffffffffffffffffffffffffffffffffffff\n  and\n  mul\n  or\n  swap1\n  sstore\n  pop\n    /* \"solidity-skills/signpayment.sol\":70:1445  contract ReceiverPays {... */\n  dataSize(sub_0)\n  dup1\n  dataOffset(sub_0)\n  0x00\n  codecopy\n  0x00\n  return\nstop\n\nsub_0: assembly {\n        /* \"solidity-skills/signpayment.sol\":70:1445  contract ReceiverPays {... */\n      mstore(0x40, 0x80)\n      callvalue\n      dup1\n      iszero\n      tag_1\n      jumpi\n      0x00\n      dup1\n      revert\n    tag_1:\n      pop\n      jumpi(tag_2, lt(calldatasize, 0x04))\n      shr(0xe0, calldataload(0x00))\n      dup1\n      0x41c0e1b5\n      eq\n      tag_3\n      jumpi\n      dup1\n      0xa90ae887\n      eq\n      tag_4\n      jumpi\n    tag_2:\n      0x00\n      dup1\n      revert\n        /* \"solidity-skills/signpayment.sol\":580:693  function kill() external {... */\n    tag_3:\n      tag_5\n      tag_6\n      jump\t// in\n    tag_5:\n      stop\n        /* \"solidity-skills/signpayment.sol\":208:574  function claimPayment(uint256 amount,uint256 nonce,bytes memory signature) external {... */\n    tag_4:\n      tag_7\n      0x04\n      dup1\n      calldatasize\n      sub\n      dup2\n      add\n      swap1\n      tag_8\n      swap2\n      swap1\n      tag_9\n      jump\t// in\n    tag_8:\n      tag_10\n      jump\t// in\n    tag_7:\n      stop\n        /* \"solidity-skills/signpayment.sol\":580:693  function kill() external {... */\n    tag_6:\n        /* \"solidity-skills/signpayment.sol\":637:642  owner */\n      0x00\n      dup1\n      sload\n      swap1\n      0x0100\n      exp\n      swap1\n      div\n      0xffffffffffffffffffffffffffffffffffffffff\n      and\n        /* \"solidity-skills/signpayment.sol\":623:642  msg.sender == owner */\n      0xffffffffffffffffffffffffffffffffffffffff\n      and\n        /* \"solidity-skills/signpayment.sol\":623:633  msg.sender */\n      caller\n        /* \"solidity-skills/signpayment.sol\":623:642  msg.sender == owner */\n      0xffffffffffffffffffffffffffffffffffffffff\n      and\n      eq\n        /* \"solidity-skills/signpayment.sol\":615:643  require(msg.sender == owner) */\n      tag_12\n      jumpi\n      0x00\n      dup1\n      revert\n    tag_12:\n        /* \"solidity-skills/signpayment.sol\":674:684  msg.sender */\n      caller\n        /* \"solidity-skills/signpayment.sol\":653:686  selfdestruct(payable(msg.sender)) */\n      0xffffffffffffffffffffffffffffffffffffffff\n      and\n      selfdestruct\n        /* \"solidity-skills/signpayment.sol\":208:574  function claimPayment(uint256 amount,uint256 nonce,bytes memory signature) external {... */\n    tag_10:\n        /* \"solidity-skills/signpayment.sol\":312:321  useNonces */\n      0x01\n        /* \"solidity-skills/signpayment.sol\":312:328  useNonces[nonce] */\n      0x00\n        /* \"solidity-skills/signpayment.sol\":322:327  nonce */\n      dup4\n        /* \"solidity-skills/signpayment.sol\":312:328  useNonces[nonce] */\n      dup2\n      mstore\n      0x20\n      add\n      swap1\n      dup2\n      mstore\n      0x20\n      add\n      0x00\n      keccak256\n      0x00\n      swap1\n      sload\n      swap1\n      0x0100\n      exp\n      swap1\n      div\n      0xff\n      and\n        /* \"solidity-skills/signpayment.sol\":311:328  !useNonces[nonce] */\n      iszero\n        /* \"solidity-skills/signpayment.sol\":303:329  require(!useNonces[nonce]) */\n      tag_14\n      jumpi\n      0x00\n      dup1\n      revert\n    tag_14:\n        /* \"solidity-skills/signpayment.sol\":358:362  true */\n      0x01\n        /* \"solidity-skills/signpayment.sol\":339:348  useNonces */\n      dup1\n        /* \"solidity-skills/signpayment.sol\":339:355  useNonces[nonce] */\n      0x00\n        /* \"solidity-skills/signpayment.sol\":349:354  nonce */\n      dup5\n        /* \"solidity-skills/signpayment.sol\":339:355  useNonces[nonce] */\n      dup2\n      mstore\n      0x20\n      add\n      swap1\n      dup2\n      mstore\n      0x20\n      add\n      0x00\n      keccak256\n      0x00\n        /* \"solidity-skills/signpayment.sol\":339:362  useNonces[nonce] = true */\n      0x0100\n      exp\n      dup2\n      sload\n      dup2\n      0xff\n      mul\n      not\n      and\n      swap1\n      dup4\n      iszero\n      iszero\n      mul\n      or\n      swap1\n      sstore\n      pop\n        /* \"solidity-skills/signpayment.sol\":373:388  bytes32 message */\n      0x00\n        /* \"solidity-skills/signpayment.sol\":391:458  prefixed(keccak256(abi.encodePacked(msg.sender,amount,nonce,this))) */\n      tag_15\n        /* \"solidity-skills/signpayment.sol\":427:437  msg.sender */\n      caller\n        /* \"solidity-skills/signpayment.sol\":438:444  amount */\n      dup6\n        /* \"solidity-skills/signpayment.sol\":445:450  nonce */\n      dup6\n        /* \"solidity-skills/signpayment.sol\":451:455  this */\n      address\n        /* \"solidity-skills/signpayment.sol\":410:456  abi.encodePacked(msg.sender,amount,nonce,this) */\n      add(0x20, mload(0x40))\n      tag_16\n      swap5\n      swap4\n      swap3\n      swap2\n      swap1\n      tag_17\n      jump\t// in\n    tag_16:\n      mload(0x40)\n      0x20\n      dup2\n      dup4\n      sub\n      sub\n      dup2\n      mstore\n      swap1\n      0x40\n      mstore\n        /* \"solidity-skills/signpayment.sol\":400:457  keccak256(abi.encodePacked(msg.sender,amount,nonce,this)) */\n      dup1\n      mload\n      swap1\n      0x20\n      add\n      keccak256\n        /* \"solidity-skills/signpayment.sol\":391:399  prefixed */\n      tag_18\n        /* \"solidity-skills/signpayment.sol\":391:458  prefixed(keccak256(abi.encodePacked(msg.sender,amount,nonce,this))) */\n      jump\t// in\n    tag_15:\n        /* \"solidity-skills/signpayment.sol\":373:458  bytes32 message = prefixed(keccak256(abi.encodePacked(msg.sender,amount,nonce,this))) */\n      swap1\n      pop\n        /* \"solidity-skills/signpayment.sol\":513:518  owner */\n      0x00\n      dup1\n      sload\n      swap1\n      0x0100\n      exp\n      swap1\n      div\n      0xffffffffffffffffffffffffffffffffffffffff\n      and\n        /* \"solidity-skills/signpayment.sol\":477:518  recoverSigner(message,signature) == owner */\n      0xffffffffffffffffffffffffffffffffffffffff\n      and\n        /* \"solidity-skills/signpayment.sol\":477:509  recoverSigner(message,signature) */\n      tag_19\n        /* \"solidity-skills/signpayment.sol\":491:498  message */\n      dup3\n        /* \"solidity-skills/signpayment.sol\":499:508  signature */\n      dup5\n        /* \"solidity-skills/signpayment.sol\":477:490  recoverSigner */\n      tag_20\n        /* \"solidity-skills/signpayment.sol\":477:509  recoverSigner(message,signature) */\n      jump\t// in\n    tag_19:\n        /* \"solidity-skills/signpayment.sol\":477:518  recoverSigner(message,signature) == owner */\n      0xffffffffffffffffffffffffffffffffffffffff\n      and\n      eq\n        /* \"solidity-skills/signpayment.sol\":469:519  require(recoverSigner(message,signature) == owner) */\n      tag_21\n      jumpi\n      0x00\n      dup1\n      revert\n    tag_21:\n        /* \"solidity-skills/signpayment.sol\":538:548  msg.sender */\n      caller\n        /* \"solidity-skills/signpayment.sol\":530:558  payable(msg.sender).transfer */\n      0xffffffffffffffffffffffffffffffffffffffff\n      and\n        /* \"solidity-skills/signpayment.sol\":530:566  payable(msg.sender).transfer(amount) */\n      0x08fc\n        /* \"solidity-skills/signpayment.sol\":559:565  amount */\n      dup6\n        /* \"solidity-skills/signpayment.sol\":530:566  payable(msg.sender).transfer(amount) */\n      swap1\n      dup2\n      iszero\n      mul\n      swap1\n      mload(0x40)\n      0x00\n      mload(0x40)\n      dup1\n      dup4\n      sub\n      dup2\n      dup6\n      dup9\n      dup9\n      call\n      swap4\n      pop\n      pop\n      pop\n      pop\n      iszero\n      dup1\n      iszero\n      tag_23\n      jumpi\n      returndatasize\n      0x00\n      dup1\n      returndatacopy\n      revert(0x00, returndatasize)\n    tag_23:\n      pop\n        /* \"solidity-skills/signpayment.sol\":208:574  function claimPayment(uint256 amount,uint256 nonce,bytes memory signature) external {... */\n      pop\n      pop\n      pop\n      pop\n      jump\t// out\n        /* \"solidity-skills/signpayment.sol\":1282:1438  function prefixed(bytes32 hash) internal pure returns (bytes32) {... */\n    tag_18:\n        /* \"solidity-skills/signpayment.sol\":1337:1344  bytes32 */\n      0x00\n        /* \"solidity-skills/signpayment.sol\":1425:1429  hash */\n      dup2\n        /* \"solidity-skills/signpayment.sol\":1373:1430  abi.encodePacked(\"\\x19Ethereum Signed Message:\\n32\",hash) */\n      add(0x20, mload(0x40))\n      tag_25\n      swap2\n      swap1\n      tag_26\n      jump\t// in\n    tag_25:\n      mload(0x40)\n      0x20\n      dup2\n      dup4\n      sub\n      sub\n      dup2\n      mstore\n      swap1\n      0x40\n      mstore\n        /* \"solidity-skills/signpayment.sol\":1363:1431  keccak256(abi.encodePacked(\"\\x19Ethereum Signed Message:\\n32\",hash)) */\n      dup1\n      mload\n      swap1\n      0x20\n      add\n      keccak256\n        /* \"solidity-skills/signpayment.sol\":1356:1431  return keccak256(abi.encodePacked(\"\\x19Ethereum Signed Message:\\n32\",hash)) */\n      swap1\n      pop\n        /* \"solidity-skills/signpayment.sol\":1282:1438  function prefixed(bytes32 hash) internal pure returns (bytes32) {... */\n      swap2\n      swap1\n      pop\n      jump\t// out\n        /* \"solidity-skills/signpayment.sol\":1061:1262  function recoverSigner(bytes32 message,bytes memory sig) internal pure returns (address) {... */\n    tag_20:\n        /* \"solidity-skills/signpayment.sol\":1141:1148  address */\n      0x00\n        /* \"solidity-skills/signpayment.sol\":1161:1168  uint8 v */\n      dup1\n        /* \"solidity-skills/signpayment.sol\":1170:1179  bytes32 r */\n      0x00\n        /* \"solidity-skills/signpayment.sol\":1181:1190  bytes32 s */\n      dup1\n        /* \"solidity-skills/signpayment.sol\":1194:1213  splitSignature(sig) */\n      tag_28\n        /* \"solidity-skills/signpayment.sol\":1209:1212  sig */\n      dup6\n        /* \"solidity-skills/signpayment.sol\":1194:1208  splitSignature */\n      tag_29\n        /* \"solidity-skills/signpayment.sol\":1194:1213  splitSignature(sig) */\n      jump\t// in\n    tag_28:\n        /* \"solidity-skills/signpayment.sol\":1160:1213  (uint8 v, bytes32 r, bytes32 s) = splitSignature(sig) */\n      swap3\n      pop\n      swap3\n      pop\n      swap3\n      pop\n        /* \"solidity-skills/signpayment.sol\":1231:1255  ecrecover(message,v,r,s) */\n      0x01\n        /* \"solidity-skills/signpayment.sol\":1241:1248  message */\n      dup7\n        /* \"solidity-skills/signpayment.sol\":1249:1250  v */\n      dup5\n        /* \"solidity-skills/signpayment.sol\":1251:1252  r */\n      dup5\n        /* \"solidity-skills/signpayment.sol\":1253:1254  s */\n      dup5\n        /* \"solidity-skills/signpayment.sol\":1231:1255  ecrecover(message,v,r,s) */\n      mload(0x40)\n      0x00\n      dup2\n      mstore\n      0x20\n      add\n      0x40\n      mstore\n      mload(0x40)\n      tag_30\n      swap5\n      swap4\n      swap3\n      swap2\n      swap1\n      tag_31\n      jump\t// in\n    tag_30:\n      0x20\n      mload(0x40)\n      0x20\n      dup2\n      sub\n      swap1\n      dup1\n      dup5\n      sub\n      swap1\n      dup6\n      gas\n      staticcall\n      iszero\n      dup1\n      iszero\n      tag_33\n      jumpi\n      returndatasize\n      0x00\n      dup1\n      returndatacopy\n      revert(0x00, returndatasize)\n    tag_33:\n      pop\n      pop\n      pop\n      mload(sub(mload(0x40), 0x20))\n        /* \"solidity-skills/signpayment.sol\":1224:1255  return ecrecover(message,v,r,s) */\n      swap4\n      pop\n      pop\n      pop\n      pop\n        /* \"solidity-skills/signpayment.sol\":1061:1262  function recoverSigner(bytes32 message,bytes memory sig) internal pure returns (address) {... */\n      swap3\n      swap2\n      pop\n      pop\n      jump\t// out\n        /* \"solidity-skills/signpayment.sol\":725:1032  function splitSignature(bytes memory sig) internal pure returns (uint8 v,bytes32 r,bytes32 s) {... */\n    tag_29:\n        /* \"solidity-skills/signpayment.sol\":790:797  uint8 v */\n      0x00\n        /* \"solidity-skills/signpayment.sol\":798:807  bytes32 r */\n      dup1\n        /* \"solidity-skills/signpayment.sol\":808:817  bytes32 s */\n      0x00\n        /* \"solidity-skills/signpayment.sol\":851:853  65 */\n      0x41\n        /* \"solidity-skills/signpayment.sol\":837:840  sig */\n      dup5\n        /* \"solidity-skills/signpayment.sol\":837:847  sig.length */\n      mload\n        /* \"solidity-skills/signpayment.sol\":837:853  sig.length == 65 */\n      eq\n        /* \"solidity-skills/signpayment.sol\":829:854  require(sig.length == 65) */\n      tag_35\n      jumpi\n      0x00\n      dup1\n      revert\n    tag_35:\n        /* \"solidity-skills/signpayment.sol\":907:909  32 */\n      0x20\n        /* \"solidity-skills/signpayment.sol\":903:906  sig */\n      dup5\n        /* \"solidity-skills/signpayment.sol\":899:910  add(sig,32) */\n      add\n        /* \"solidity-skills/signpayment.sol\":893:911  mload(add(sig,32)) */\n      mload\n        /* \"solidity-skills/signpayment.sol\":888:911  r := mload(add(sig,32)) */\n      swap2\n      pop\n        /* \"solidity-skills/signpayment.sol\":943:945  64 */\n      0x40\n        /* \"solidity-skills/signpayment.sol\":939:942  sig */\n      dup5\n        /* \"solidity-skills/signpayment.sol\":935:946  add(sig,64) */\n      add\n        /* \"solidity-skills/signpayment.sol\":929:947  mload(add(sig,64)) */\n      mload\n        /* \"solidity-skills/signpayment.sol\":924:947  s := mload(add(sig,64)) */\n      swap1\n      pop\n        /* \"solidity-skills/signpayment.sol\":986:988  96 */\n      0x60\n        /* \"solidity-skills/signpayment.sol\":982:985  sig */\n      dup5\n        /* \"solidity-skills/signpayment.sol\":978:989  add(sig,96) */\n      add\n        /* \"solidity-skills/signpayment.sol\":972:990  mload(add(sig,96)) */\n      mload\n        /* \"solidity-skills/signpayment.sol\":970:971  0 */\n      0x00\n        /* \"solidity-skills/signpayment.sol\":965:991  byte(0,mload(add(sig,96))) */\n      byte\n        /* \"solidity-skills/signpayment.sol\":960:991  v := byte(0,mload(add(sig,96))) */\n      swap3\n      pop\n        /* \"solidity-skills/signpayment.sol\":725:1032  function splitSignature(bytes memory sig) internal pure returns (uint8 v,bytes32 r,bytes32 s) {... */\n      swap2\n      swap4\n      swap1\n      swap3\n      pop\n      jump\t// out\n        /* \"#utility.yul\":7:350   */\n    tag_37:\n        /* \"#utility.yul\":84:89   */\n      0x00\n        /* \"#utility.yul\":109:174   */\n      tag_39\n        /* \"#utility.yul\":125:173   */\n      tag_40\n        /* \"#utility.yul\":166:172   */\n      dup5\n        /* \"#utility.yul\":125:173   */\n      tag_41\n      jump\t// in\n    tag_40:\n        /* \"#utility.yul\":109:174   */\n      tag_42\n      jump\t// in\n    tag_39:\n        /* \"#utility.yul\":100:174   */\n      swap1\n      pop\n        /* \"#utility.yul\":197:203   */\n      dup3\n        /* \"#utility.yul\":190:195   */\n      dup2\n        /* \"#utility.yul\":183:204   */\n      mstore\n        /* \"#utility.yul\":235:239   */\n      0x20\n        /* \"#utility.yul\":228:233   */\n      dup2\n        /* \"#utility.yul\":224:240   */\n      add\n        /* \"#utility.yul\":273:276   */\n      dup5\n        /* \"#utility.yul\":264:270   */\n      dup5\n        /* \"#utility.yul\":259:262   */\n      dup5\n        /* \"#utility.yul\":255:271   */\n      add\n        /* \"#utility.yul\":252:277   */\n      gt\n        /* \"#utility.yul\":249:251   */\n      iszero\n      tag_43\n      jumpi\n        /* \"#utility.yul\":290:291   */\n      0x00\n        /* \"#utility.yul\":287:288   */\n      dup1\n        /* \"#utility.yul\":280:292   */\n      revert\n        /* \"#utility.yul\":249:251   */\n    tag_43:\n        /* \"#utility.yul\":303:344   */\n      tag_44\n        /* \"#utility.yul\":337:343   */\n      dup5\n        /* \"#utility.yul\":332:335   */\n      dup3\n        /* \"#utility.yul\":327:330   */\n      dup6\n        /* \"#utility.yul\":303:344   */\n      tag_45\n      jump\t// in\n    tag_44:\n        /* \"#utility.yul\":90:350   */\n      pop\n      swap4\n      swap3\n      pop\n      pop\n      pop\n      jump\t// out\n        /* \"#utility.yul\":369:640   */\n    tag_46:\n        /* \"#utility.yul\":424:429   */\n      0x00\n        /* \"#utility.yul\":473:476   */\n      dup3\n        /* \"#utility.yul\":466:470   */\n      0x1f\n        /* \"#utility.yul\":458:464   */\n      dup4\n        /* \"#utility.yul\":454:471   */\n      add\n        /* \"#utility.yul\":450:477   */\n      slt\n        /* \"#utility.yul\":440:442   */\n      tag_48\n      jumpi\n        /* \"#utility.yul\":491:492   */\n      0x00\n        /* \"#utility.yul\":488:489   */\n      dup1\n        /* \"#utility.yul\":481:493   */\n      revert\n        /* \"#utility.yul\":440:442   */\n    tag_48:\n        /* \"#utility.yul\":531:537   */\n      dup2\n        /* \"#utility.yul\":518:538   */\n      calldataload\n        /* \"#utility.yul\":556:634   */\n      tag_49\n        /* \"#utility.yul\":630:633   */\n      dup5\n        /* \"#utility.yul\":622:628   */\n      dup3\n        /* \"#utility.yul\":615:619   */\n      0x20\n        /* \"#utility.yul\":607:613   */\n      dup7\n        /* \"#utility.yul\":603:620   */\n      add\n        /* \"#utility.yul\":556:634   */\n      tag_37\n      jump\t// in\n    tag_49:\n        /* \"#utility.yul\":547:634   */\n      swap2\n      pop\n        /* \"#utility.yul\":430:640   */\n      pop\n      swap3\n      swap2\n      pop\n      pop\n      jump\t// out\n        /* \"#utility.yul\":646:785   */\n    tag_50:\n        /* \"#utility.yul\":692:697   */\n      0x00\n        /* \"#utility.yul\":730:736   */\n      dup2\n        /* \"#utility.yul\":717:737   */\n      calldataload\n        /* \"#utility.yul\":708:737   */\n      swap1\n      pop\n        /* \"#utility.yul\":746:779   */\n      tag_52\n        /* \"#utility.yul\":773:778   */\n      dup2\n        /* \"#utility.yul\":746:779   */\n      tag_53\n      jump\t// in\n    tag_52:\n        /* \"#utility.yul\":698:785   */\n      swap3\n      swap2\n      pop\n      pop\n      jump\t// out\n        /* \"#utility.yul\":791:1454   */\n    tag_9:\n        /* \"#utility.yul\":877:883   */\n      0x00\n        /* \"#utility.yul\":885:891   */\n      dup1\n        /* \"#utility.yul\":893:899   */\n      0x00\n        /* \"#utility.yul\":942:944   */\n      0x60\n        /* \"#utility.yul\":930:939   */\n      dup5\n        /* \"#utility.yul\":921:928   */\n      dup7\n        /* \"#utility.yul\":917:940   */\n      sub\n        /* \"#utility.yul\":913:945   */\n      slt\n        /* \"#utility.yul\":910:912   */\n      iszero\n      tag_55\n      jumpi\n        /* \"#utility.yul\":958:959   */\n      0x00\n        /* \"#utility.yul\":955:956   */\n      dup1\n        /* \"#utility.yul\":948:960   */\n      revert\n        /* \"#utility.yul\":910:912   */\n    tag_55:\n        /* \"#utility.yul\":1001:1002   */\n      0x00\n        /* \"#utility.yul\":1026:1079   */\n      tag_56\n        /* \"#utility.yul\":1071:1078   */\n      dup7\n        /* \"#utility.yul\":1062:1068   */\n      dup3\n        /* \"#utility.yul\":1051:1060   */\n      dup8\n        /* \"#utility.yul\":1047:1069   */\n      add\n        /* \"#utility.yul\":1026:1079   */\n      tag_50\n      jump\t// in\n    tag_56:\n        /* \"#utility.yul\":1016:1079   */\n      swap4\n      pop\n        /* \"#utility.yul\":972:1089   */\n      pop\n        /* \"#utility.yul\":1128:1130   */\n      0x20\n        /* \"#utility.yul\":1154:1207   */\n      tag_57\n        /* \"#utility.yul\":1199:1206   */\n      dup7\n        /* \"#utility.yul\":1190:1196   */\n      dup3\n        /* \"#utility.yul\":1179:1188   */\n      dup8\n        /* \"#utility.yul\":1175:1197   */\n      add\n        /* \"#utility.yul\":1154:1207   */\n      tag_50\n      jump\t// in\n    tag_57:\n        /* \"#utility.yul\":1144:1207   */\n      swap3\n      pop\n        /* \"#utility.yul\":1099:1217   */\n      pop\n        /* \"#utility.yul\":1284:1286   */\n      0x40\n        /* \"#utility.yul\":1273:1282   */\n      dup5\n        /* \"#utility.yul\":1269:1287   */\n      add\n        /* \"#utility.yul\":1256:1288   */\n      calldataload\n        /* \"#utility.yul\":1315:1333   */\n      0xffffffffffffffff\n        /* \"#utility.yul\":1307:1313   */\n      dup2\n        /* \"#utility.yul\":1304:1334   */\n      gt\n        /* \"#utility.yul\":1301:1303   */\n      iszero\n      tag_58\n      jumpi\n        /* \"#utility.yul\":1347:1348   */\n      0x00\n        /* \"#utility.yul\":1344:1345   */\n      dup1\n        /* \"#utility.yul\":1337:1349   */\n      revert\n        /* \"#utility.yul\":1301:1303   */\n    tag_58:\n        /* \"#utility.yul\":1375:1437   */\n      tag_59\n        /* \"#utility.yul\":1429:1436   */\n      dup7\n        /* \"#utility.yul\":1420:1426   */\n      dup3\n        /* \"#utility.yul\":1409:1418   */\n      dup8\n        /* \"#utility.yul\":1405:1427   */\n      add\n        /* \"#utility.yul\":1375:1437   */\n      tag_46\n      jump\t// in\n    tag_59:\n        /* \"#utility.yul\":1365:1437   */\n      swap2\n      pop\n        /* \"#utility.yul\":1227:1447   */\n      pop\n        /* \"#utility.yul\":900:1454   */\n      swap3\n      pop\n      swap3\n      pop\n      swap3\n      jump\t// out\n        /* \"#utility.yul\":1460:1617   */\n    tag_60:\n        /* \"#utility.yul\":1565:1610   */\n      tag_62\n        /* \"#utility.yul\":1585:1609   */\n      tag_63\n        /* \"#utility.yul\":1603:1608   */\n      dup3\n        /* \"#utility.yul\":1585:1609   */\n      tag_64\n      jump\t// in\n    tag_63:\n        /* \"#utility.yul\":1565:1610   */\n      tag_65\n      jump\t// in\n    tag_62:\n        /* \"#utility.yul\":1560:1563   */\n      dup3\n        /* \"#utility.yul\":1553:1611   */\n      mstore\n        /* \"#utility.yul\":1543:1617   */\n      pop\n      pop\n      jump\t// out\n        /* \"#utility.yul\":1623:1741   */\n    tag_66:\n        /* \"#utility.yul\":1710:1734   */\n      tag_68\n        /* \"#utility.yul\":1728:1733   */\n      dup2\n        /* \"#utility.yul\":1710:1734   */\n      tag_69\n      jump\t// in\n    tag_68:\n        /* \"#utility.yul\":1705:1708   */\n      dup3\n        /* \"#utility.yul\":1698:1735   */\n      mstore\n        /* \"#utility.yul\":1688:1741   */\n      pop\n      pop\n      jump\t// out\n        /* \"#utility.yul\":1747:1904   */\n    tag_70:\n        /* \"#utility.yul\":1852:1897   */\n      tag_72\n        /* \"#utility.yul\":1872:1896   */\n      tag_73\n        /* \"#utility.yul\":1890:1895   */\n      dup3\n        /* \"#utility.yul\":1872:1896   */\n      tag_69\n      jump\t// in\n    tag_73:\n        /* \"#utility.yul\":1852:1897   */\n      tag_74\n      jump\t// in\n    tag_72:\n        /* \"#utility.yul\":1847:1850   */\n      dup3\n        /* \"#utility.yul\":1840:1898   */\n      mstore\n        /* \"#utility.yul\":1830:1904   */\n      pop\n      pop\n      jump\t// out\n        /* \"#utility.yul\":1910:2120   */\n    tag_75:\n        /* \"#utility.yul\":2035:2113   */\n      tag_77\n        /* \"#utility.yul\":2055:2112   */\n      tag_78\n        /* \"#utility.yul\":2106:2111   */\n      dup3\n        /* \"#utility.yul\":2055:2112   */\n      tag_79\n      jump\t// in\n    tag_78:\n        /* \"#utility.yul\":2035:2113   */\n      tag_65\n      jump\t// in\n    tag_77:\n        /* \"#utility.yul\":2030:2033   */\n      dup3\n        /* \"#utility.yul\":2023:2114   */\n      mstore\n        /* \"#utility.yul\":2013:2120   */\n      pop\n      pop\n      jump\t// out\n        /* \"#utility.yul\":2126:2528   */\n    tag_80:\n        /* \"#utility.yul\":2286:2289   */\n      0x00\n        /* \"#utility.yul\":2307:2392   */\n      tag_82\n        /* \"#utility.yul\":2389:2391   */\n      0x1c\n        /* \"#utility.yul\":2384:2387   */\n      dup4\n        /* \"#utility.yul\":2307:2392   */\n      tag_83\n      jump\t// in\n    tag_82:\n        /* \"#utility.yul\":2300:2392   */\n      swap2\n      pop\n        /* \"#utility.yul\":2401:2494   */\n      tag_84\n        /* \"#utility.yul\":2490:2493   */\n      dup3\n        /* \"#utility.yul\":2401:2494   */\n      tag_85\n      jump\t// in\n    tag_84:\n        /* \"#utility.yul\":2519:2521   */\n      0x1c\n        /* \"#utility.yul\":2514:2517   */\n      dup3\n        /* \"#utility.yul\":2510:2522   */\n      add\n        /* \"#utility.yul\":2503:2522   */\n      swap1\n      pop\n        /* \"#utility.yul\":2290:2528   */\n      swap2\n      swap1\n      pop\n      jump\t// out\n        /* \"#utility.yul\":2534:2691   */\n    tag_86:\n        /* \"#utility.yul\":2639:2684   */\n      tag_88\n        /* \"#utility.yul\":2659:2683   */\n      tag_89\n        /* \"#utility.yul\":2677:2682   */\n      dup3\n        /* \"#utility.yul\":2659:2683   */\n      tag_90\n      jump\t// in\n    tag_89:\n        /* \"#utility.yul\":2639:2684   */\n      tag_91\n      jump\t// in\n    tag_88:\n        /* \"#utility.yul\":2634:2637   */\n      dup3\n        /* \"#utility.yul\":2627:2685   */\n      mstore\n        /* \"#utility.yul\":2617:2691   */\n      pop\n      pop\n      jump\t// out\n        /* \"#utility.yul\":2697:2809   */\n    tag_92:\n        /* \"#utility.yul\":2780:2802   */\n      tag_94\n        /* \"#utility.yul\":2796:2801   */\n      dup2\n        /* \"#utility.yul\":2780:2802   */\n      tag_95\n      jump\t// in\n    tag_94:\n        /* \"#utility.yul\":2775:2778   */\n      dup3\n        /* \"#utility.yul\":2768:2803   */\n      mstore\n        /* \"#utility.yul\":2758:2809   */\n      pop\n      pop\n      jump\t// out\n        /* \"#utility.yul\":2815:3534   */\n    tag_17:\n        /* \"#utility.yul\":3031:3034   */\n      0x00\n        /* \"#utility.yul\":3046:3121   */\n      tag_97\n        /* \"#utility.yul\":3117:3120   */\n      dup3\n        /* \"#utility.yul\":3108:3114   */\n      dup8\n        /* \"#utility.yul\":3046:3121   */\n      tag_60\n      jump\t// in\n    tag_97:\n        /* \"#utility.yul\":3146:3148   */\n      0x14\n        /* \"#utility.yul\":3141:3144   */\n      dup3\n        /* \"#utility.yul\":3137:3149   */\n      add\n        /* \"#utility.yul\":3130:3149   */\n      swap2\n      pop\n        /* \"#utility.yul\":3159:3234   */\n      tag_98\n        /* \"#utility.yul\":3230:3233   */\n      dup3\n        /* \"#utility.yul\":3221:3227   */\n      dup7\n        /* \"#utility.yul\":3159:3234   */\n      tag_86\n      jump\t// in\n    tag_98:\n        /* \"#utility.yul\":3259:3261   */\n      0x20\n        /* \"#utility.yul\":3254:3257   */\n      dup3\n        /* \"#utility.yul\":3250:3262   */\n      add\n        /* \"#utility.yul\":3243:3262   */\n      swap2\n      pop\n        /* \"#utility.yul\":3272:3347   */\n      tag_99\n        /* \"#utility.yul\":3343:3346   */\n      dup3\n        /* \"#utility.yul\":3334:3340   */\n      dup6\n        /* \"#utility.yul\":3272:3347   */\n      tag_86\n      jump\t// in\n    tag_99:\n        /* \"#utility.yul\":3372:3374   */\n      0x20\n        /* \"#utility.yul\":3367:3370   */\n      dup3\n        /* \"#utility.yul\":3363:3375   */\n      add\n        /* \"#utility.yul\":3356:3375   */\n      swap2\n      pop\n        /* \"#utility.yul\":3385:3480   */\n      tag_100\n        /* \"#utility.yul\":3476:3479   */\n      dup3\n        /* \"#utility.yul\":3467:3473   */\n      dup5\n        /* \"#utility.yul\":3385:3480   */\n      tag_75\n      jump\t// in\n    tag_100:\n        /* \"#utility.yul\":3505:3507   */\n      0x14\n        /* \"#utility.yul\":3500:3503   */\n      dup3\n        /* \"#utility.yul\":3496:3508   */\n      add\n        /* \"#utility.yul\":3489:3508   */\n      swap2\n      pop\n        /* \"#utility.yul\":3525:3528   */\n      dup2\n        /* \"#utility.yul\":3518:3528   */\n      swap1\n      pop\n        /* \"#utility.yul\":3035:3534   */\n      swap6\n      swap5\n      pop\n      pop\n      pop\n      pop\n      pop\n      jump\t// out\n        /* \"#utility.yul\":3540:4062   */\n    tag_26:\n        /* \"#utility.yul\":3753:3756   */\n      0x00\n        /* \"#utility.yul\":3775:3923   */\n      tag_102\n        /* \"#utility.yul\":3919:3922   */\n      dup3\n        /* \"#utility.yul\":3775:3923   */\n      tag_80\n      jump\t// in\n    tag_102:\n        /* \"#utility.yul\":3768:3923   */\n      swap2\n      pop\n        /* \"#utility.yul\":3933:4008   */\n      tag_103\n        /* \"#utility.yul\":4004:4007   */\n      dup3\n        /* \"#utility.yul\":3995:4001   */\n      dup5\n        /* \"#utility.yul\":3933:4008   */\n      tag_70\n      jump\t// in\n    tag_103:\n        /* \"#utility.yul\":4033:4035   */\n      0x20\n        /* \"#utility.yul\":4028:4031   */\n      dup3\n        /* \"#utility.yul\":4024:4036   */\n      add\n        /* \"#utility.yul\":4017:4036   */\n      swap2\n      pop\n        /* \"#utility.yul\":4053:4056   */\n      dup2\n        /* \"#utility.yul\":4046:4056   */\n      swap1\n      pop\n        /* \"#utility.yul\":3757:4062   */\n      swap3\n      swap2\n      pop\n      pop\n      jump\t// out\n        /* \"#utility.yul\":4068:4613   */\n    tag_31:\n        /* \"#utility.yul\":4241:4245   */\n      0x00\n        /* \"#utility.yul\":4279:4282   */\n      0x80\n        /* \"#utility.yul\":4268:4277   */\n      dup3\n        /* \"#utility.yul\":4264:4283   */\n      add\n        /* \"#utility.yul\":4256:4283   */\n      swap1\n      pop\n        /* \"#utility.yul\":4293:4364   */\n      tag_105\n        /* \"#utility.yul\":4361:4362   */\n      0x00\n        /* \"#utility.yul\":4350:4359   */\n      dup4\n        /* \"#utility.yul\":4346:4363   */\n      add\n        /* \"#utility.yul\":4337:4343   */\n      dup8\n        /* \"#utility.yul\":4293:4364   */\n      tag_66\n      jump\t// in\n    tag_105:\n        /* \"#utility.yul\":4374:4442   */\n      tag_106\n        /* \"#utility.yul\":4438:4440   */\n      0x20\n        /* \"#utility.yul\":4427:4436   */\n      dup4\n        /* \"#utility.yul\":4423:4441   */\n      add\n        /* \"#utility.yul\":4414:4420   */\n      dup7\n        /* \"#utility.yul\":4374:4442   */\n      tag_92\n      jump\t// in\n    tag_106:\n        /* \"#utility.yul\":4452:4524   */\n      tag_107\n        /* \"#utility.yul\":4520:4522   */\n      0x40\n        /* \"#utility.yul\":4509:4518   */\n      dup4\n        /* \"#utility.yul\":4505:4523   */\n      add\n        /* \"#utility.yul\":4496:4502   */\n      dup6\n        /* \"#utility.yul\":4452:4524   */\n      tag_66\n      jump\t// in\n    tag_107:\n        /* \"#utility.yul\":4534:4606   */\n      tag_108\n        /* \"#utility.yul\":4602:4604   */\n      0x60\n        /* \"#utility.yul\":4591:4600   */\n      dup4\n        /* \"#utility.yul\":4587:4605   */\n      add\n        /* \"#utility.yul\":4578:4584   */\n      dup5\n        /* \"#utility.yul\":4534:4606   */\n      tag_66\n      jump\t// in\n    tag_108:\n        /* \"#utility.yul\":4246:4613   */\n      swap6\n      swap5\n      pop\n      pop\n      pop\n      pop\n      pop\n      jump\t// out\n        /* \"#utility.yul\":4619:4748   */\n    tag_42:\n        /* \"#utility.yul\":4653:4659   */\n      0x00\n        /* \"#utility.yul\":4680:4700   */\n      tag_110\n      tag_111\n      jump\t// in\n    tag_110:\n        /* \"#utility.yul\":4670:4700   */\n      swap1\n      pop\n        /* \"#utility.yul\":4709:4742   */\n      tag_112\n        /* \"#utility.yul\":4737:4741   */\n      dup3\n        /* \"#utility.yul\":4729:4735   */\n      dup3\n        /* \"#utility.yul\":4709:4742   */\n      tag_113\n      jump\t// in\n    tag_112:\n        /* \"#utility.yul\":4660:4748   */\n      swap2\n      swap1\n      pop\n      jump\t// out\n        /* \"#utility.yul\":4754:4829   */\n    tag_111:\n        /* \"#utility.yul\":4787:4793   */\n      0x00\n        /* \"#utility.yul\":4820:4822   */\n      0x40\n        /* \"#utility.yul\":4814:4823   */\n      mload\n        /* \"#utility.yul\":4804:4823   */\n      swap1\n      pop\n        /* \"#utility.yul\":4794:4829   */\n      swap1\n      jump\t// out\n        /* \"#utility.yul\":4835:5142   */\n    tag_41:\n        /* \"#utility.yul\":4896:4900   */\n      0x00\n        /* \"#utility.yul\":4986:5004   */\n      0xffffffffffffffff\n        /* \"#utility.yul\":4978:4984   */\n      dup3\n        /* \"#utility.yul\":4975:5005   */\n      gt\n        /* \"#utility.yul\":4972:4974   */\n      iszero\n      tag_116\n      jumpi\n        /* \"#utility.yul\":5008:5026   */\n      tag_117\n      tag_118\n      jump\t// in\n    tag_117:\n        /* \"#utility.yul\":4972:4974   */\n    tag_116:\n        /* \"#utility.yul\":5046:5075   */\n      tag_119\n        /* \"#utility.yul\":5068:5074   */\n      dup3\n        /* \"#utility.yul\":5046:5075   */\n      tag_120\n      jump\t// in\n    tag_119:\n        /* \"#utility.yul\":5038:5075   */\n      swap1\n      pop\n        /* \"#utility.yul\":5130:5134   */\n      0x20\n        /* \"#utility.yul\":5124:5128   */\n      dup2\n        /* \"#utility.yul\":5120:5135   */\n      add\n        /* \"#utility.yul\":5112:5135   */\n      swap1\n      pop\n        /* \"#utility.yul\":4901:5142   */\n      swap2\n      swap1\n      pop\n      jump\t// out\n        /* \"#utility.yul\":5148:5296   */\n    tag_83:\n        /* \"#utility.yul\":5250:5261   */\n      0x00\n        /* \"#utility.yul\":5287:5290   */\n      dup2\n        /* \"#utility.yul\":5272:5290   */\n      swap1\n      pop\n        /* \"#utility.yul\":5262:5296   */\n      swap3\n      swap2\n      pop\n      pop\n      jump\t// out\n        /* \"#utility.yul\":5302:5398   */\n    tag_64:\n        /* \"#utility.yul\":5339:5346   */\n      0x00\n        /* \"#utility.yul\":5368:5392   */\n      tag_123\n        /* \"#utility.yul\":5386:5391   */\n      dup3\n        /* \"#utility.yul\":5368:5392   */\n      tag_124\n      jump\t// in\n    tag_123:\n        /* \"#utility.yul\":5357:5392   */\n      swap1\n      pop\n        /* \"#utility.yul\":5347:5398   */\n      swap2\n      swap1\n      pop\n      jump\t// out\n        /* \"#utility.yul\":5404:5481   */\n    tag_69:\n        /* \"#utility.yul\":5441:5448   */\n      0x00\n        /* \"#utility.yul\":5470:5475   */\n      dup2\n        /* \"#utility.yul\":5459:5475   */\n      swap1\n      pop\n        /* \"#utility.yul\":5449:5481   */\n      swap2\n      swap1\n      pop\n      jump\t// out\n        /* \"#utility.yul\":5487:5613   */\n    tag_124:\n        /* \"#utility.yul\":5524:5531   */\n      0x00\n        /* \"#utility.yul\":5564:5606   */\n      0xffffffffffffffffffffffffffffffffffffffff\n        /* \"#utility.yul\":5557:5562   */\n      dup3\n        /* \"#utility.yul\":5553:5607   */\n      and\n        /* \"#utility.yul\":5542:5607   */\n      swap1\n      pop\n        /* \"#utility.yul\":5532:5613   */\n      swap2\n      swap1\n      pop\n      jump\t// out\n        /* \"#utility.yul\":5619:5696   */\n    tag_90:\n        /* \"#utility.yul\":5656:5663   */\n      0x00\n        /* \"#utility.yul\":5685:5690   */\n      dup2\n        /* \"#utility.yul\":5674:5690   */\n      swap1\n      pop\n        /* \"#utility.yul\":5664:5696   */\n      swap2\n      swap1\n      pop\n      jump\t// out\n        /* \"#utility.yul\":5702:5788   */\n    tag_95:\n        /* \"#utility.yul\":5737:5744   */\n      0x00\n        /* \"#utility.yul\":5777:5781   */\n      0xff\n        /* \"#utility.yul\":5770:5775   */\n      dup3\n        /* \"#utility.yul\":5766:5782   */\n      and\n        /* \"#utility.yul\":5755:5782   */\n      swap1\n      pop\n        /* \"#utility.yul\":5745:5788   */\n      swap2\n      swap1\n      pop\n      jump\t// out\n        /* \"#utility.yul\":5794:5960   */\n    tag_79:\n        /* \"#utility.yul\":5864:5873   */\n      0x00\n        /* \"#utility.yul\":5897:5954   */\n      tag_130\n        /* \"#utility.yul\":5948:5953   */\n      dup3\n        /* \"#utility.yul\":5897:5954   */\n      tag_131\n      jump\t// in\n    tag_130:\n        /* \"#utility.yul\":5884:5954   */\n      swap1\n      pop\n        /* \"#utility.yul\":5874:5960   */\n      swap2\n      swap1\n      pop\n      jump\t// out\n        /* \"#utility.yul\":5966:6099   */\n    tag_131:\n        /* \"#utility.yul\":6036:6045   */\n      0x00\n        /* \"#utility.yul\":6069:6093   */\n      tag_133\n        /* \"#utility.yul\":6087:6092   */\n      dup3\n        /* \"#utility.yul\":6069:6093   */\n      tag_124\n      jump\t// in\n    tag_133:\n        /* \"#utility.yul\":6056:6093   */\n      swap1\n      pop\n        /* \"#utility.yul\":6046:6099   */\n      swap2\n      swap1\n      pop\n      jump\t// out\n        /* \"#utility.yul\":6105:6259   */\n    tag_45:\n        /* \"#utility.yul\":6189:6195   */\n      dup3\n        /* \"#utility.yul\":6184:6187   */\n      dup2\n        /* \"#utility.yul\":6179:6182   */\n      dup4\n        /* \"#utility.yul\":6166:6196   */\n      calldatacopy\n        /* \"#utility.yul\":6251:6252   */\n      0x00\n        /* \"#utility.yul\":6242:6248   */\n      dup4\n        /* \"#utility.yul\":6237:6240   */\n      dup4\n        /* \"#utility.yul\":6233:6249   */\n      add\n        /* \"#utility.yul\":6226:6253   */\n      mstore\n        /* \"#utility.yul\":6156:6259   */\n      pop\n      pop\n      pop\n      jump\t// out\n        /* \"#utility.yul\":6265:6546   */\n    tag_113:\n        /* \"#utility.yul\":6348:6375   */\n      tag_136\n        /* \"#utility.yul\":6370:6374   */\n      dup3\n        /* \"#utility.yul\":6348:6375   */\n      tag_120\n      jump\t// in\n    tag_136:\n        /* \"#utility.yul\":6340:6346   */\n      dup2\n        /* \"#utility.yul\":6336:6376   */\n      add\n        /* \"#utility.yul\":6478:6484   */\n      dup2\n        /* \"#utility.yul\":6466:6476   */\n      dup2\n        /* \"#utility.yul\":6463:6485   */\n      lt\n        /* \"#utility.yul\":6442:6460   */\n      0xffffffffffffffff\n        /* \"#utility.yul\":6430:6440   */\n      dup3\n        /* \"#utility.yul\":6427:6461   */\n      gt\n        /* \"#utility.yul\":6424:6486   */\n      or\n        /* \"#utility.yul\":6421:6423   */\n      iszero\n      tag_137\n      jumpi\n        /* \"#utility.yul\":6489:6507   */\n      tag_138\n      tag_118\n      jump\t// in\n    tag_138:\n        /* \"#utility.yul\":6421:6423   */\n    tag_137:\n        /* \"#utility.yul\":6529:6539   */\n      dup1\n        /* \"#utility.yul\":6525:6527   */\n      0x40\n        /* \"#utility.yul\":6518:6540   */\n      mstore\n        /* \"#utility.yul\":6308:6546   */\n      pop\n      pop\n      pop\n      jump\t// out\n        /* \"#utility.yul\":6552:6652   */\n    tag_65:\n        /* \"#utility.yul\":6591:6598   */\n      0x00\n        /* \"#utility.yul\":6620:6646   */\n      tag_140\n        /* \"#utility.yul\":6640:6645   */\n      dup3\n        /* \"#utility.yul\":6620:6646   */\n      tag_141\n      jump\t// in\n    tag_140:\n        /* \"#utility.yul\":6609:6646   */\n      swap1\n      pop\n        /* \"#utility.yul\":6599:6652   */\n      swap2\n      swap1\n      pop\n      jump\t// out\n        /* \"#utility.yul\":6658:6737   */\n    tag_74:\n        /* \"#utility.yul\":6697:6704   */\n      0x00\n        /* \"#utility.yul\":6726:6731   */\n      dup2\n        /* \"#utility.yul\":6715:6731   */\n      swap1\n      pop\n        /* \"#utility.yul\":6705:6737   */\n      swap2\n      swap1\n      pop\n      jump\t// out\n        /* \"#utility.yul\":6743:6837   */\n    tag_141:\n        /* \"#utility.yul\":6782:6789   */\n      0x00\n        /* \"#utility.yul\":6811:6831   */\n      tag_144\n        /* \"#utility.yul\":6825:6830   */\n      dup3\n        /* \"#utility.yul\":6811:6831   */\n      tag_145\n      jump\t// in\n    tag_144:\n        /* \"#utility.yul\":6800:6831   */\n      swap1\n      pop\n        /* \"#utility.yul\":6790:6837   */\n      swap2\n      swap1\n      pop\n      jump\t// out\n        /* \"#utility.yul\":6843:6922   */\n    tag_91:\n        /* \"#utility.yul\":6882:6889   */\n      0x00\n        /* \"#utility.yul\":6911:6916   */\n      dup2\n        /* \"#utility.yul\":6900:6916   */\n      swap1\n      pop\n        /* \"#utility.yul\":6890:6922   */\n      swap2\n      swap1\n      pop\n      jump\t// out\n        /* \"#utility.yul\":6928:7108   */\n    tag_118:\n        /* \"#utility.yul\":6976:7053   */\n      0x4e487b7100000000000000000000000000000000000000000000000000000000\n        /* \"#utility.yul\":6973:6974   */\n      0x00\n        /* \"#utility.yul\":6966:7054   */\n      mstore\n        /* \"#utility.yul\":7073:7077   */\n      0x41\n        /* \"#utility.yul\":7070:7071   */\n      0x04\n        /* \"#utility.yul\":7063:7078   */\n      mstore\n        /* \"#utility.yul\":7097:7101   */\n      0x24\n        /* \"#utility.yul\":7094:7095   */\n      0x00\n        /* \"#utility.yul\":7087:7102   */\n      revert\n        /* \"#utility.yul\":7114:7216   */\n    tag_120:\n        /* \"#utility.yul\":7155:7161   */\n      0x00\n        /* \"#utility.yul\":7206:7208   */\n      0x1f\n        /* \"#utility.yul\":7202:7209   */\n      not\n        /* \"#utility.yul\":7197:7199   */\n      0x1f\n        /* \"#utility.yul\":7190:7195   */\n      dup4\n        /* \"#utility.yul\":7186:7200   */\n      add\n        /* \"#utility.yul\":7182:7210   */\n      and\n        /* \"#utility.yul\":7172:7210   */\n      swap1\n      pop\n        /* \"#utility.yul\":7162:7216   */\n      swap2\n      swap1\n      pop\n      jump\t// out\n        /* \"#utility.yul\":7222:7316   */\n    tag_145:\n        /* \"#utility.yul\":7255:7263   */\n      0x00\n        /* \"#utility.yul\":7303:7308   */\n      dup2\n        /* \"#utility.yul\":7299:7301   */\n      0x60\n        /* \"#utility.yul\":7295:7309   */\n      shl\n        /* \"#utility.yul\":7274:7309   */\n      swap1\n      pop\n        /* \"#utility.yul\":7264:7316   */\n      swap2\n      swap1\n      pop\n      jump\t// out\n        /* \"#utility.yul\":7322:7536   */\n    tag_85:\n        /* \"#utility.yul\":7462:7528   */\n      0x19457468657265756d205369676e6564204d6573736167653a0a333200000000\n        /* \"#utility.yul\":7458:7459   */\n      0x00\n        /* \"#utility.yul\":7450:7456   */\n      dup3\n        /* \"#utility.yul\":7446:7460   */\n      add\n        /* \"#utility.yul\":7439:7529   */\n      mstore\n        /* \"#utility.yul\":7428:7536   */\n      pop\n      jump\t// out\n        /* \"#utility.yul\":7542:7664   */\n    tag_53:\n        /* \"#utility.yul\":7615:7639   */\n      tag_152\n        /* \"#utility.yul\":7633:7638   */\n      dup2\n        /* \"#utility.yul\":7615:7639   */\n      tag_90\n      jump\t// in\n    tag_152:\n        /* \"#utility.yul\":7608:7613   */\n      dup2\n        /* \"#utility.yul\":7605:7640   */\n      eq\n        /* \"#utility.yul\":7595:7597   */\n      tag_153\n      jumpi\n        /* \"#utility.yul\":7654:7655   */\n      0x00\n        /* \"#utility.yul\":7651:7652   */\n      dup1\n        /* \"#utility.yul\":7644:7656   */\n      revert\n        /* \"#utility.yul\":7595:7597   */\n    tag_153:\n        /* \"#utility.yul\":7585:7664   */\n      pop\n      jump\t// out\n\n    auxdata: 0xa264697066735822122070564207f96c896183d09297f95160be95df60a0a93c16a5fe495973aef3fe9364736f6c63430008040033\n}\n",
				"bytecode": {
					"linkReferences": {},
					"object": "6080604052336000806101000a81548173ffffffffffffffffffffffffffffffffffffffff021916908373ffffffffffffffffffffffffffffffffffffffff16021790555061072d806100536000396000f3fe608060405234801561001057600080fd5b50600436106100365760003560e01c806341c0e1b51461003b578063a90ae88714610045575b600080fd5b610043610061565b005b61005f600480360381019061005a919061035d565b6100d2565b005b60008054906101000a900473ffffffffffffffffffffffffffffffffffffffff1673ffffffffffffffffffffffffffffffffffffffff163373ffffffffffffffffffffffffffffffffffffffff16146100b957600080fd5b3373ffffffffffffffffffffffffffffffffffffffff16ff5b6001600083815260200190815260200160002060009054906101000a900460ff16156100fd57600080fd5b600180600084815260200190815260200160002060006101000a81548160ff021916908315150217905550600061015f338585306040516020016101449493929190610461565b6040516020818303038152906040528051906020012061020f565b905060008054906101000a900473ffffffffffffffffffffffffffffffffffffffff1673ffffffffffffffffffffffffffffffffffffffff166101a2828461023f565b73ffffffffffffffffffffffffffffffffffffffff16146101c257600080fd5b3373ffffffffffffffffffffffffffffffffffffffff166108fc859081150290604051600060405180830381858888f19350505050158015610208573d6000803e3d6000fd5b5050505050565b60008160405160200161022291906104af565b604051602081830303815290604052805190602001209050919050565b60008060008061024e856102ae565b9250925092506001868484846040516000815260200160405260405161027794939291906104d5565b6020604051602081039080840390855afa158015610299573d6000803e3d6000fd5b50505060206040510351935050505092915050565b600080600060418451146102c157600080fd5b6020840151915060408401519050606084015160001a92509193909250565b60006102f36102ee8461053f565b61051a565b90508281526020810184848401111561030b57600080fd5b6103168482856105f2565b509392505050565b600082601f83011261032f57600080fd5b813561033f8482602086016102e0565b91505092915050565b600081359050610357816106e0565b92915050565b60008060006060848603121561037257600080fd5b600061038086828701610348565b935050602061039186828701610348565b925050604084013567ffffffffffffffff8111156103ae57600080fd5b6103ba8682870161031e565b9150509250925092565b6103d56103d08261057b565b610632565b82525050565b6103e48161058d565b82525050565b6103fb6103f68261058d565b610644565b82525050565b61041261040d826105ce565b610632565b82525050565b6000610425601c83610570565b9150610430826106b7565b601c82019050919050565b61044c610447826105b7565b610660565b82525050565b61045b816105c1565b82525050565b600061046d82876103c4565b60148201915061047d828661043b565b60208201915061048d828561043b565b60208201915061049d8284610401565b60148201915081905095945050505050565b60006104ba82610418565b91506104c682846103ea565b60208201915081905092915050565b60006080820190506104ea60008301876103db565b6104f76020830186610452565b61050460408301856103db565b61051160608301846103db565b95945050505050565b6000610524610535565b90506105308282610601565b919050565b6000604051905090565b600067ffffffffffffffff82111561055a5761055961066a565b5b61056382610699565b9050602081019050919050565b600081905092915050565b600061058682610597565b9050919050565b6000819050919050565b600073ffffffffffffffffffffffffffffffffffffffff82169050919050565b6000819050919050565b600060ff82169050919050565b60006105d9826105e0565b9050919050565b60006105eb82610597565b9050919050565b82818337600083830152505050565b61060a82610699565b810181811067ffffffffffffffff821117156106295761062861066a565b5b80604052505050565b600061063d8261064e565b9050919050565b6000819050919050565b6000610659826106aa565b9050919050565b6000819050919050565b7f4e487b7100000000000000000000000000000000000000000000000000000000600052604160045260246000fd5b6000601f19601f8301169050919050565b60008160601b9050919050565b7f19457468657265756d205369676e6564204d6573736167653a0a333200000000600082015250565b6106e9816105b7565b81146106f457600080fd5b5056fea264697066735822122070564207f96c896183d09297f95160be95df60a0a93c16a5fe495973aef3fe9364736f6c63430008040033",
					"opcodes": "PUSH1 0x80 PUSH1 0x40 MSTORE CALLER PUSH1 0x0 DUP1 PUSH2 0x100 EXP DUP2 SLOAD DUP2 PUSH20 0xFFFFFFFFFFFFFFFFFFFFFFFFFFFFFFFFFFFFFFFF MUL NOT AND SWAP1 DUP4 PUSH20 0xFFFFFFFFFFFFFFFFFFFFFFFFFFFFFFFFFFFFFFFF AND MUL OR SWAP1 SSTORE POP PUSH2 0x72D DUP1 PUSH2 0x53 PUSH1 0x0 CODECOPY PUSH1 0x0 RETURN INVALID PUSH1 0x80 PUSH1 0x40 MSTORE CALLVALUE DUP1 ISZERO PUSH2 0x10 JUMPI PUSH1 0x0 DUP1 REVERT JUMPDEST POP PUSH1 0x4 CALLDATASIZE LT PUSH2 0x36 JUMPI PUSH1 0x0 CALLDATALOAD PUSH1 0xE0 SHR DUP1 PUSH4 0x41C0E1B5 EQ PUSH2 0x3B JUMPI DUP1 PUSH4 0xA90AE887 EQ PUSH2 0x45 JUMPI JUMPDEST PUSH1 0x0 DUP1 REVERT JUMPDEST PUSH2 0x43 PUSH2 0x61 JUMP JUMPDEST STOP JUMPDEST PUSH2 0x5F PUSH1 0x4 DUP1 CALLDATASIZE SUB DUP2 ADD SWAP1 PUSH2 0x5A SWAP2 SWAP1 PUSH2 0x35D JUMP JUMPDEST PUSH2 0xD2 JUMP JUMPDEST STOP JUMPDEST PUSH1 0x0 DUP1 SLOAD SWAP1 PUSH2 0x100 EXP SWAP1 DIV PUSH20 0xFFFFFFFFFFFFFFFFFFFFFFFFFFFFFFFFFFFFFFFF AND PUSH20 0xFFFFFFFFFFFFFFFFFFFFFFFFFFFFFFFFFFFFFFFF AND CALLER PUSH20 0xFFFFFFFFFFFFFFFFFFFFFFFFFFFFFFFFFFFFFFFF AND EQ PUSH2 0xB9 JUMPI PUSH1 0x0 DUP1 REVERT JUMPDEST CALLER PUSH20 0xFFFFFFFFFFFFFFFFFFFFFFFFFFFFFFFFFFFFFFFF AND SELFDESTRUCT JUMPDEST PUSH1 0x1 PUSH1 0x0 DUP4 DUP2 MSTORE PUSH1 0x20 ADD SWAP1 DUP2 MSTORE PUSH1 0x20 ADD PUSH1 0x0 KECCAK256 PUSH1 0x0 SWAP1 SLOAD SWAP1 PUSH2 0x100 EXP SWAP1 DIV PUSH1 0xFF AND ISZERO PUSH2 0xFD JUMPI PUSH1 0x0 DUP1 REVERT JUMPDEST PUSH1 0x1 DUP1 PUSH1 0x0 DUP5 DUP2 MSTORE PUSH1 0x20 ADD SWAP1 DUP2 MSTORE PUSH1 0x20 ADD PUSH1 0x0 KECCAK256 PUSH1 0x0 PUSH2 0x100 EXP DUP2 SLOAD DUP2 PUSH1 0xFF MUL NOT AND SWAP1 DUP4 ISZERO ISZERO MUL OR SWAP1 SSTORE POP PUSH1 0x0 PUSH2 0x15F CALLER DUP6 DUP6 ADDRESS PUSH1 0x40 MLOAD PUSH1 0x20 ADD PUSH2 0x144 SWAP5 SWAP4 SWAP3 SWAP2 SWAP1 PUSH2 0x461 JUMP JUMPDEST PUSH1 0x40 MLOAD PUSH1 0x20 DUP2 DUP4 SUB SUB DUP2 MSTORE SWAP1 PUSH1 0x40 MSTORE DUP1 MLOAD SWAP1 PUSH1 0x20 ADD KECCAK256 PUSH2 0x20F JUMP JUMPDEST SWAP1 POP PUSH1 0x0 DUP1 SLOAD SWAP1 PUSH2 0x100 EXP SWAP1 DIV PUSH20 0xFFFFFFFFFFFFFFFFFFFFFFFFFFFFFFFFFFFFFFFF AND PUSH20 0xFFFFFFFFFFFFFFFFFFFFFFFFFFFFFFFFFFFFFFFF AND PUSH2 0x1A2 DUP3 DUP5 PUSH2 0x23F JUMP JUMPDEST PUSH20 0xFFFFFFFFFFFFFFFFFFFFFFFFFFFFFFFFFFFFFFFF AND EQ PUSH2 0x1C2 JUMPI PUSH1 0x0 DUP1 REVERT JUMPDEST CALLER PUSH20 0xFFFFFFFFFFFFFFFFFFFFFFFFFFFFFFFFFFFFFFFF AND PUSH2 0x8FC DUP6 SWAP1 DUP2 ISZERO MUL SWAP1 PUSH1 0x40 MLOAD PUSH1 0x0 PUSH1 0x40 MLOAD DUP1 DUP4 SUB DUP2 DUP6 DUP9 DUP9 CALL SWAP4 POP POP POP POP ISZERO DUP1 ISZERO PUSH2 0x208 JUMPI RETURNDATASIZE PUSH1 0x0 DUP1 RETURNDATACOPY RETURNDATASIZE PUSH1 0x0 REVERT JUMPDEST POP POP POP POP POP JUMP JUMPDEST PUSH1 0x0 DUP2 PUSH1 0x40 MLOAD PUSH1 0x20 ADD PUSH2 0x222 SWAP2 SWAP1 PUSH2 0x4AF JUMP JUMPDEST PUSH1 0x40 MLOAD PUSH1 0x20 DUP2 DUP4 SUB SUB DUP2 MSTORE SWAP1 PUSH1 0x40 MSTORE DUP1 MLOAD SWAP1 PUSH1 0x20 ADD KECCAK256 SWAP1 POP SWAP2 SWAP1 POP JUMP JUMPDEST PUSH1 0x0 DUP1 PUSH1 0x0 DUP1 PUSH2 0x24E DUP6 PUSH2 0x2AE JUMP JUMPDEST SWAP3 POP SWAP3 POP SWAP3 POP PUSH1 0x1 DUP7 DUP5 DUP5 DUP5 PUSH1 0x40 MLOAD PUSH1 0x0 DUP2 MSTORE PUSH1 0x20 ADD PUSH1 0x40 MSTORE PUSH1 0x40 MLOAD PUSH2 0x277 SWAP5 SWAP4 SWAP3 SWAP2 SWAP1 PUSH2 0x4D5 JUMP JUMPDEST PUSH1 0x20 PUSH1 0x40 MLOAD PUSH1 0x20 DUP2 SUB SWAP1 DUP1 DUP5 SUB SWAP1 DUP6 GAS STATICCALL ISZERO DUP1 ISZERO PUSH2 0x299 JUMPI RETURNDATASIZE PUSH1 0x0 DUP1 RETURNDATACOPY RETURNDATASIZE PUSH1 0x0 REVERT JUMPDEST POP POP POP PUSH1 0x20 PUSH1 0x40 MLOAD SUB MLOAD SWAP4 POP POP POP POP SWAP3 SWAP2 POP POP JUMP JUMPDEST PUSH1 0x0 DUP1 PUSH1 0x0 PUSH1 0x41 DUP5 MLOAD EQ PUSH2 0x2C1 JUMPI PUSH1 0x0 DUP1 REVERT JUMPDEST PUSH1 0x20 DUP5 ADD MLOAD SWAP2 POP PUSH1 0x40 DUP5 ADD MLOAD SWAP1 POP PUSH1 0x60 DUP5 ADD MLOAD PUSH1 0x0 BYTE SWAP3 POP SWAP2 SWAP4 SWAP1 SWAP3 POP JUMP JUMPDEST PUSH1 0x0 PUSH2 0x2F3 PUSH2 0x2EE DUP5 PUSH2 0x53F JUMP JUMPDEST PUSH2 0x51A JUMP JUMPDEST SWAP1 POP DUP3 DUP2 MSTORE PUSH1 0x20 DUP2 ADD DUP5 DUP5 DUP5 ADD GT ISZERO PUSH2 0x30B JUMPI PUSH1 0x0 DUP1 REVERT JUMPDEST PUSH2 0x316 DUP5 DUP3 DUP6 PUSH2 0x5F2 JUMP JUMPDEST POP SWAP4 SWAP3 POP POP POP JUMP JUMPDEST PUSH1 0x0 DUP3 PUSH1 0x1F DUP4 ADD SLT PUSH2 0x32F JUMPI PUSH1 0x0 DUP1 REVERT JUMPDEST DUP2 CALLDATALOAD PUSH2 0x33F DUP5 DUP3 PUSH1 0x20 DUP7 ADD PUSH2 0x2E0 JUMP JUMPDEST SWAP2 POP POP SWAP3 SWAP2 POP POP JUMP JUMPDEST PUSH1 0x0 DUP2 CALLDATALOAD SWAP1 POP PUSH2 0x357 DUP2 PUSH2 0x6E0 JUMP JUMPDEST SWAP3 SWAP2 POP POP JUMP JUMPDEST PUSH1 0x0 DUP1 PUSH1 0x0 PUSH1 0x60 DUP5 DUP7 SUB SLT ISZERO PUSH2 0x372 JUMPI PUSH1 0x0 DUP1 REVERT JUMPDEST PUSH1 0x0 PUSH2 0x380 DUP7 DUP3 DUP8 ADD PUSH2 0x348 JUMP JUMPDEST SWAP4 POP POP PUSH1 0x20 PUSH2 0x391 DUP7 DUP3 DUP8 ADD PUSH2 0x348 JUMP JUMPDEST SWAP3 POP POP PUSH1 0x40 DUP5 ADD CALLDATALOAD PUSH8 0xFFFFFFFFFFFFFFFF DUP2 GT ISZERO PUSH2 0x3AE JUMPI PUSH1 0x0 DUP1 REVERT JUMPDEST PUSH2 0x3BA DUP7 DUP3 DUP8 ADD PUSH2 0x31E JUMP JUMPDEST SWAP2 POP POP SWAP3 POP SWAP3 POP SWAP3 JUMP JUMPDEST PUSH2 0x3D5 PUSH2 0x3D0 DUP3 PUSH2 0x57B JUMP JUMPDEST PUSH2 0x632 JUMP JUMPDEST DUP3 MSTORE POP POP JUMP JUMPDEST PUSH2 0x3E4 DUP2 PUSH2 0x58D JUMP JUMPDEST DUP3 MSTORE POP POP JUMP JUMPDEST PUSH2 0x3FB PUSH2 0x3F6 DUP3 PUSH2 0x58D JUMP JUMPDEST PUSH2 0x644 JUMP JUMPDEST DUP3 MSTORE POP POP JUMP JUMPDEST PUSH2 0x412 PUSH2 0x40D DUP3 PUSH2 0x5CE JUMP JUMPDEST PUSH2 0x632 JUMP JUMPDEST DUP3 MSTORE POP POP JUMP JUMPDEST PUSH1 0x0 PUSH2 0x425 PUSH1 0x1C DUP4 PUSH2 0x570 JUMP JUMPDEST SWAP2 POP PUSH2 0x430 DUP3 PUSH2 0x6B7 JUMP JUMPDEST PUSH1 0x1C DUP3 ADD SWAP1 POP SWAP2 SWAP1 POP JUMP JUMPDEST PUSH2 0x44C PUSH2 0x447 DUP3 PUSH2 0x5B7 JUMP JUMPDEST PUSH2 0x660 JUMP JUMPDEST DUP3 MSTORE POP POP JUMP JUMPDEST PUSH2 0x45B DUP2 PUSH2 0x5C1 JUMP JUMPDEST DUP3 MSTORE POP POP JUMP JUMPDEST PUSH1 0x0 PUSH2 0x46D DUP3 DUP8 PUSH2 0x3C4 JUMP JUMPDEST PUSH1 0x14 DUP3 ADD SWAP2 POP PUSH2 0x47D DUP3 DUP7 PUSH2 0x43B JUMP JUMPDEST PUSH1 0x20 DUP3 ADD SWAP2 POP PUSH2 0x48D DUP3 DUP6 PUSH2 0x43B JUMP JUMPDEST PUSH1 0x20 DUP3 ADD SWAP2 POP PUSH2 0x49D DUP3 DUP5 PUSH2 0x401 JUMP JUMPDEST PUSH1 0x14 DUP3 ADD SWAP2 POP DUP2 SWAP1 POP SWAP6 SWAP5 POP POP POP POP POP JUMP JUMPDEST PUSH1 0x0 PUSH2 0x4BA DUP3 PUSH2 0x418 JUMP JUMPDEST SWAP2 POP PUSH2 0x4C6 DUP3 DUP5 PUSH2 0x3EA JUMP JUMPDEST PUSH1 0x20 DUP3 ADD SWAP2 POP DUP2 SWAP1 POP SWAP3 SWAP2 POP POP JUMP JUMPDEST PUSH1 0x0 PUSH1 0x80 DUP3 ADD SWAP1 POP PUSH2 0x4EA PUSH1 0x0 DUP4 ADD DUP8 PUSH2 0x3DB JUMP JUMPDEST PUSH2 0x4F7 PUSH1 0x20 DUP4 ADD DUP7 PUSH2 0x452 JUMP JUMPDEST PUSH2 0x504 PUSH1 0x40 DUP4 ADD DUP6 PUSH2 0x3DB JUMP JUMPDEST PUSH2 0x511 PUSH1 0x60 DUP4 ADD DUP5 PUSH2 0x3DB JUMP JUMPDEST SWAP6 SWAP5 POP POP POP POP POP JUMP JUMPDEST PUSH1 0x0 PUSH2 0x524 PUSH2 0x535 JUMP JUMPDEST SWAP1 POP PUSH2 0x530 DUP3 DUP3 PUSH2 0x601 JUMP JUMPDEST SWAP2 SWAP1 POP JUMP JUMPDEST PUSH1 0x0 PUSH1 0x40 MLOAD SWAP1 POP SWAP1 JUMP JUMPDEST PUSH1 0x0 PUSH8 0xFFFFFFFFFFFFFFFF DUP3 GT ISZERO PUSH2 0x55A JUMPI PUSH2 0x559 PUSH2 0x66A JUMP JUMPDEST JUMPDEST PUSH2 0x563 DUP3 PUSH2 0x699 JUMP JUMPDEST SWAP1 POP PUSH1 0x20 DUP2 ADD SWAP1 POP SWAP2 SWAP1 POP JUMP JUMPDEST PUSH1 0x0 DUP2 SWAP1 POP SWAP3 SWAP2 POP POP JUMP JUMPDEST PUSH1 0x0 PUSH2 0x586 DUP3 PUSH2 0x597 JUMP JUMPDEST SWAP1 POP SWAP2 SWAP1 POP JUMP JUMPDEST PUSH1 0x0 DUP2 SWAP1 POP SWAP2 SWAP1 POP JUMP JUMPDEST PUSH1 0x0 PUSH20 0xFFFFFFFFFFFFFFFFFFFFFFFFFFFFFFFFFFFFFFFF DUP3 AND SWAP1 POP SWAP2 SWAP1 POP JUMP JUMPDEST PUSH1 0x0 DUP2 SWAP1 POP SWAP2 SWAP1 POP JUMP JUMPDEST PUSH1 0x0 PUSH1 0xFF DUP3 AND SWAP1 POP SWAP2 SWAP1 POP JUMP JUMPDEST PUSH1 0x0 PUSH2 0x5D9 DUP3 PUSH2 0x5E0 JUMP JUMPDEST SWAP1 POP SWAP2 SWAP1 POP JUMP JUMPDEST PUSH1 0x0 PUSH2 0x5EB DUP3 PUSH2 0x597 JUMP JUMPDEST SWAP1 POP SWAP2 SWAP1 POP JUMP JUMPDEST DUP3 DUP2 DUP4 CALLDATACOPY PUSH1 0x0 DUP4 DUP4 ADD MSTORE POP POP POP JUMP JUMPDEST PUSH2 0x60A DUP3 PUSH2 0x699 JUMP JUMPDEST DUP2 ADD DUP2 DUP2 LT PUSH8 0xFFFFFFFFFFFFFFFF DUP3 GT OR ISZERO PUSH2 0x629 JUMPI PUSH2 0x628 PUSH2 0x66A JUMP JUMPDEST JUMPDEST DUP1 PUSH1 0x40 MSTORE POP POP POP JUMP JUMPDEST PUSH1 0x0 PUSH2 0x63D DUP3 PUSH2 0x64E JUMP JUMPDEST SWAP1 POP SWAP2 SWAP1 POP JUMP JUMPDEST PUSH1 0x0 DUP2 SWAP1 POP SWAP2 SWAP1 POP JUMP JUMPDEST PUSH1 0x0 PUSH2 0x659 DUP3 PUSH2 0x6AA JUMP JUMPDEST SWAP1 POP SWAP2 SWAP1 POP JUMP JUMPDEST PUSH1 0x0 DUP2 SWAP1 POP SWAP2 SWAP1 POP JUMP JUMPDEST PUSH32 0x4E487B7100000000000000000000000000000000000000000000000000000000 PUSH1 0x0 MSTORE PUSH1 0x41 PUSH1 0x4 MSTORE PUSH1 0x24 PUSH1 0x0 REVERT JUMPDEST PUSH1 0x0 PUSH1 0x1F NOT PUSH1 0x1F DUP4 ADD AND SWAP1 POP SWAP2 SWAP1 POP JUMP JUMPDEST PUSH1 0x0 DUP2 PUSH1 0x60 SHL SWAP1 POP SWAP2 SWAP1 POP JUMP JUMPDEST PUSH32 0x19457468657265756D205369676E6564204D6573736167653A0A333200000000 PUSH1 0x0 DUP3 ADD MSTORE POP JUMP JUMPDEST PUSH2 0x6E9 DUP2 PUSH2 0x5B7 JUMP JUMPDEST DUP2 EQ PUSH2 0x6F4 JUMPI PUSH1 0x0 DUP1 REVERT JUMPDEST POP JUMP INVALID LOG2 PUSH5 0x6970667358 0x22 SLT KECCAK256 PUSH17 0x564207F96C896183D09297F95160BE95DF PUSH1 0xA0 0xA9 EXTCODECOPY AND 0xA5 INVALID 0x49 MSIZE PUSH20 0xAEF3FE9364736F6C634300080400330000000000 "
				},
				"gasEstimates": {
					"creation": {
						"codeDepositCost": "367400",
						"executionCost": "21247",
						"totalCost": "388647"
					},
					"external": {
						"claimPayment(uint256,uint256,bytes)": "infinite",
						"kill()": "30988"
					},
					"internal": {
						"prefixed(bytes32)": "infinite",
						"recoverSigner(bytes32,bytes memory)": "infinite",
						"splitSignature(bytes memory)": "infinite"
					}
				},
				"methodIdentifiers": {
					"claimPayment(uint256,uint256,bytes)": "a90ae887",
					"kill()": "41c0e1b5"
				}
			},
			"storageLayout": {
				"storage": [
					{
						"astId": 5,
						"contract": "solidity-skills/signpayment.sol:ReceiverPays",
						"label": "owner",
						"offset": 0,
						"slot": "0",
						"type": "t_address"
					},
					{
						"astId": 9,
						"contract": "solidity-skills/signpayment.sol:ReceiverPays",
						"label": "useNonces",
						"offset": 0,
						"slot": "1",
						"type": "t_mapping(t_uint256,t_bool)"
					}
				],
				"types": {
					"t_address": {
						"encoding": "inplace",
						"label": "address",
						"numberOfBytes": "20"
					},
					"t_bool": {
						"encoding": "inplace",
						"label": "bool",
						"numberOfBytes": "1"
					},
					"t_mapping(t_uint256,t_bool)": {
						"encoding": "mapping",
						"key": "t_uint256",
						"label": "mapping(uint256 => bool)",
						"numberOfBytes": "32",
						"value": "t_bool"
					},
					"t_uint256": {
						"encoding": "inplace",
						"label": "uint256",
						"numberOfBytes": "32"
					}
				}
			},
			"userdoc": {
				"kind": "user",
				"methods": {},
				"version": 1
			}
		}
	}
}