{
  "contractName": "Box",
  "abi": [
    {
      "inputs": [
        {
          "internalType": "contract Auth",
          "name": "_auth",
          "type": "address"
        }
      ],
      "stateMutability": "nonpayable",
      "type": "constructor"
    },
    {
      "anonymous": false,
      "inputs": [
        {
          "indexed": false,
          "internalType": "uint256",
          "name": "newValue",
          "type": "uint256"
        }
      ],
      "name": "ValueChanged",
      "type": "event"
    },
    {
      "inputs": [
        {
          "internalType": "uint256",
          "name": "newValue",
          "type": "uint256"
        }
      ],
      "name": "store",
      "outputs": [],
      "stateMutability": "nonpayable",
      "type": "function"
    },
    {
      "inputs": [],
      "name": "retrieve",
      "outputs": [
        {
          "internalType": "uint256",
          "name": "",
          "type": "uint256"
        }
      ],
      "stateMutability": "view",
      "type": "function",
      "constant": true
    }
  ],
  "bytecode": "0x608060405234801561001057600080fd5b506040516104cc3803806104cc833981810160405281019061003291906100ee565b80600160006101000a81548173ffffffffffffffffffffffffffffffffffffffff021916908373ffffffffffffffffffffffffffffffffffffffff1602179055505061011b565b600080fd5b600073ffffffffffffffffffffffffffffffffffffffff82169050919050565b60006100a98261007e565b9050919050565b60006100bb8261009e565b9050919050565b6100cb816100b0565b81146100d657600080fd5b50565b6000815190506100e8816100c2565b92915050565b60006020828403121561010457610103610079565b5b6000610112848285016100d9565b91505092915050565b6103a28061012a6000396000f3fe608060405234801561001057600080fd5b50600436106100365760003560e01c80632e64cec11461003b5780636057361d14610059575b600080fd5b610043610075565b60405161005091906101b5565b60405180910390f35b610073600480360381019061006e9190610201565b61007e565b005b60008054905090565b600160009054906101000a900473ffffffffffffffffffffffffffffffffffffffff1673ffffffffffffffffffffffffffffffffffffffff16630a2eb301336040518263ffffffff1660e01b81526004016100d9919061026f565b602060405180830381865afa1580156100f6573d6000803e3d6000fd5b505050506040513d601f19601f8201168201806040525081019061011a91906102c2565b610159576040517f08c379a00000000000000000000000000000000000000000000000000000000081526004016101509061034c565b60405180910390fd5b806000819055507f93fe6d397c74fdf1402a8b72e47b68512f0510d7b98a4bc4cbdf6ac7108b3c5960005460405161019191906101b5565b60405180910390a150565b6000819050919050565b6101af8161019c565b82525050565b60006020820190506101ca60008301846101a6565b92915050565b600080fd5b6101de8161019c565b81146101e957600080fd5b50565b6000813590506101fb816101d5565b92915050565b600060208284031215610217576102166101d0565b5b6000610225848285016101ec565b91505092915050565b600073ffffffffffffffffffffffffffffffffffffffff82169050919050565b60006102598261022e565b9050919050565b6102698161024e565b82525050565b60006020820190506102846000830184610260565b92915050565b60008115159050919050565b61029f8161028a565b81146102aa57600080fd5b50565b6000815190506102bc81610296565b92915050565b6000602082840312156102d8576102d76101d0565b5b60006102e6848285016102ad565b91505092915050565b600082825260208201905092915050565b7f556e617574686f72697a65640000000000000000000000000000000000000000600082015250565b6000610336600c836102ef565b915061034182610300565b602082019050919050565b6000602082019050818103600083015261036581610329565b905091905056fea26469706673582212208c9365ae0812c17dc3e82dd9262a3fbc1923ef9ea66135103e828dc780c213d964736f6c634300080d0033",
  "immutableReferences": {},
  "source": "// SPDX-License-Identifier: MIT\npragma solidity >=0.4.22 <0.9.0;\n\nimport \"./access-control/Auth.sol\";\n\ncontract Box {\n\n     //\n     uint256 private value;\n\n     //1  \n     Auth private auth;\n\n\n     //\n     event ValueChanged(uint256 newValue);\n\n     //2 \n     constructor(Auth _auth) {\n          auth = _auth;\n     } \n\n     //\n     function store(uint256 newValue) public {\n\n          //3 \n          require(auth.isAdministrator(msg.sender) ,\"Unauthorized\");\n\n          value = newValue;\n          emit ValueChanged(value);\n     }\n\n     //\n     function retrieve()public view returns (uint256){\n          return value;\n     } \n}",
  "sourcePath": "/Users/qinjianquan/solidity-projects/Openzeppeplin/contracts/Box.sol",
  "compiler": {
    "name": "solc",
    "version": "0.8.13+commit.abaa5c0e.Emscripten.clang"
  },
  "schemaVersion": "3.4.7",
  "updatedAt": "2022-06-14T02:46:48.992Z",
  "networkType": "ethereum",
  "devdoc": {
    "kind": "dev",
    "methods": {},
    "version": 1
  },
  "userdoc": {
    "kind": "user",
    "methods": {},
    "version": 1
  }
}